:1000000060250020552F000067750000292F000093
:10001000292F0000292F0000292F000000000000D8
:10002000000000000000000000000000312C000073
:10003000292F000000000000DD2B0000292F000008
:10004000E92C0000E92C0000E92C0000E92C00005C
:10005000E92C0000E92C0000E92C0000E92C00004C
:10006000E92C0000E92C0000E92C0000E92C00003C
:10007000E92C0000E92C0000E92C0000E92C00002C
:10008000E92C0000E92C0000E92C0000E92C00001C
:10009000E92C0000E92C0000E92C0000E92C00000C
:1000A000E92C0000E92C0000E92C0000E92C0000FC
:1000B000E92C0000E92C0000E92C0000E92C0000EC
:1000C000E92C0000E92C0000E92C0000E92C0000DC
:1000D000E92C0000E92C0000E92C0000E92C0000CC
:1000E000E92C0000E92C0000E92C0000E92C0000BC
:1000F000E92C0000E92C0000E92C0000E92C0000AC
:100100004FF0FF0C1CEAD0521EBF1CEAD15392EAFA
:100110000C0F93EA0C0F6FD01A4480EA010C4002D6
:1001200018BF5FEA41211ED04FF0006343EA501030
:1001300043EA5111A0FB01310CF00040B1F5000F72
:100140003EBF490041EAD3715B0040EA010062F121
:100150007F02FD2A1DD8B3F1004F40EBC25008BF0B
:1001600020F00100704790F0000F0CF0004C08BF29
:1001700049024CEA502040EA51207F3AC2BFD2F1F6
:10018000FF0340EAC250704740F400004FF0000304
:10019000013A5DDC12F1190FDCBF00F0004070473E
:1001A000C2F10002410021FA02F1C2F1200200FA7C
:1001B00002FC5FEA310040F1000053EA4C0308BF43
:1001C00020EADC70704792F0000F00F0004C02BF94
:1001D000400010F4000F013AF9D040EA0C0093F00F
:1001E000000F01F0004C02BF490011F4000F013B69
:1001F000F9D041EA0C018FE70CEAD15392EA0C0FD7
:1002000018BF93EA0C0F0AD030F0004C18BF31F041
:10021000004CD8D180EA010000F00040704790F017
:10022000000F17BF90F0004F084691F0000F91F0BB
:10023000004F14D092EA0C0F01D142020FD193EA81
:100240000C0F03D14B0218BF084608D180EA010009
:1002500000F0004040F0FE4040F40000704740F0E5
:10026000FE4040F44000704781F0004102E000BFD2
:1002700083F0004330B54FEA41044FEA430594EA66
:10028000050F08BF90EA020F1FBF54EA000C55EAA1
:10029000020C7FEA645C7FEA655C00F0E2804FEA72
:1002A0005454D4EB5555B8BF6D420CDD2C4480EA54
:1002B000020281EA030382EA000083EA010180EA84
:1002C000020281EA0303362D88BF30BD11F0004FD2
:1002D0004FEA01314FF4801C4CEA113102D0404208
:1002E00061EB410113F0004F4FEA03334CEA133343
:1002F00002D0524263EB430394EA050F00F0A7805B
:10030000A4F10104D5F1200E0DDB02FA0EFC22FA55
:1003100005F2801841F1000103FA0EF2801843FA49
:1003200005F359410EE0A5F120050EF1200E012A3A
:1003300003FA0EFC28BF4CF0020C43FA05F3C01878
:1003400051EBE37101F0004507D54FF0000EDCF1F1
:10035000000C7EEB00006EEB0101B1F5801F1BD39A
:10036000B1F5001F0CD349085FEA30004FEA3C0C9E
:1003700004F101044FEA445212F5800F80F09A8094
:10038000BCF1004F08BF5FEA500C50F1000041EB98
:10039000045141EA050130BD5FEA4C0C404141EB9C
:1003A0000101013C28BFB1F5801FE9D291F0000F97
:1003B00004BF01460020B1FA81F308BF2033A3F146
:1003C0000B03B3F120020CDA0C3208DD02F1140C3D
:1003D000C2F10C0201FA0CF021FA02F10CE002F178
:1003E0001402D8BFC2F1200C01FA02F120FA0CFC71
:1003F000DCBF41EA0C019040E41AA2BF01EB0451BA
:10040000294330BD6FEA04041F3C1CDA0C340EDCB7
:1004100004F11404C4F1200220FA04F001FA02F3FA
:1004200040EA030021FA04F345EA030130BDC4F1B8
:100430000C04C4F1200220FA02F001FA04F340EAAD
:100440000300294630BD21FA04F0294630BD94F05E
:10045000000F83F4801306BF81F480110134013D45
:100460004EE77FEA645C18BF7FEA655C29D094EAB6
:10047000050F08BF90EA020F05D054EA000C04BF34
:100480001946104630BD91EA030F1EBF002100201F
:1004900030BD5FEA545C05D14000494128BF41F0BE
:1004A000004130BD14F580043CBF01F5801130BD22
:1004B00001F0004545F0FE4141F470014FF00000AD
:1004C00030BD7FEA645C1ABF194610467FEA655C5E
:1004D0001CBF0B46024650EA013406BF52EA033500
:1004E00091EA030F41F4002130BD00BF90F0000FEE
:1004F00004BF0021704730B54FF4806404F132042A
:100500004FF000054FF0000150E700BF90F0000FE2
:1005100004BF0021704730B54FF4806404F1320409
:1005200010F0004548BF40424FF000013EE700BFD9
:1005300042004FEAE2014FEA31014FEA02701FBF69
:1005400012F07F4393F07F4F81F06051704732F09B
:100550007F4208BF704793F07F4F04BF41F40021F2
:10056000704730B54FF4607401F0004521F0004150
:100570001CE700BF50EA010208BF704730B54FF0DA
:1005800000050AE050EA010208BF704730B511F0DB
:10059000004502D5404261EB41014FF4806404F113
:1005A00032045FEA915C3FF4D8AE4FF003025FEA99
:1005B000DC0C18BF03325FEADC0C18BF033202EB1D
:1005C000DC02C2F1200300FA03FC20FA02F001FA77
:1005D00003FE40EA0E0021FA02F11444BDE600BF1A
:1005E00080F0004002E000BF81F0004142001FBFE8
:1005F0005FEA410392EA030F7FEA226C7FEA236CF1
:100600006AD04FEA1262D2EB1363C1BFD2184140E5
:1006100048404140B8BF5B42192B88BF704710F07B
:10062000004F40F4000020F07F4018BF404211F01E
:10063000004F41F4000121F07F4118BF494292EA86
:10064000030F3FD0A2F1010241FA03FC10EB0C00B2
:10065000C3F1200301FA03F100F0004302D549423F
:1006600060EB4000B0F5000F13D3B0F1807F06D3EC
:1006700040084FEA310102F10102FE2A51D2B1F1E4
:10068000004F40EBC25008BF20F0010040EA0300D9
:100690007047490040EB0000013A28BFB0F5000F59
:1006A000EDD2B0FA80FCACF1080CB2EB0C0200FA0F
:1006B0000CF0AABF00EBC25052421843BCBFD0405E
:1006C0001843704792F0000F81F4000106BF80F4D8
:1006D00000000132013BB5E74FEA41037FEA226C9B
:1006E00018BF7FEA236C21D092EA030F04D092F066
:1006F000000F08BF0846704790EA010F1CBF00209A
:10070000704712F07F4F04D1400028BF40F00040F6
:10071000704712F100723CBF00F50000704700F016
:10072000004343F0FE4040F4000070477FEA22623D
:1007300016BF08467FEA23630146420206BF5FEA0E
:10074000412390EA010F40F4800070474FF000030E
:1007500004E000BF10F0004348BF40425FEA000CD5
:1007600008BF704743F0964301464FF000001CE07D
:1007700050EA010208BF70474FF000030AE000BFD3
:1007800050EA010208BF704711F0004302D5404211
:1007900061EB41015FEA010C02BF84460146002083
:1007A00043F0B64308BFA3F18053A3F50003BCFA9E
:1007B0008CF2083AA3EBC25310DB01FA02FC63444B
:1007C00000FA02FCC2F12002BCF1004F20FA02F252
:1007D00043EB020008BF20F00100704702F1200245
:1007E00001FA02FCC2F1200250EA4C0021FA02F2A6
:1007F00043EB020008BF20EADC7070474FF0FF3C7B
:1008000006E000BF4FF0010C02E000BF4FF0010C0A
:100810004DF804CD4FEA40024FEA41037FEA226CD3
:1008200018BF7FEA236C11D001B052EA530C18BFF5
:1008300090EA010F58BFB2EB030088BFC81738BF5A
:100840006FEAE17018BF40F0010070477FEA226C48
:1008500002D15FEA402C05D17FEA236CE4D15FEA44
:10086000412CE1D05DF8040B704700BF8446084678
:100870006146FFE70FB5FFF7C9FF002848BF10F139
:10088000000F0FBD4DF808EDFFF7F4FF0CBF01207E
:1008900000205DF808FB00BF4DF808EDFFF7EAFF08
:1008A00034BF012000205DF808FB00BF4DF808EDC3
:1008B000FFF7E0FF94BF012000205DF808FB00BFB8
:1008C0004DF808EDFFF7D2FF94BF012000205DF83E
:1008D00008FB00BF4DF808EDFFF7C8FF34BF01204B
:1008E00000205DF808FB00BF4FEA4002B2F1FE4F66
:1008F0000FD34FF09E03B3EB12620DD94FEA0023E2
:1009000043F0004310F0004F23FA02F018BF4042BA
:1009100070474FF00000704712F1610F01D14202A1
:1009200005D110F0004008BF6FF0004070474FF055
:100930000000704742000ED2B2F1FE4F0BD34FF0D1
:100940009E03B3EB126209D44FEA002343F0004345
:1009500023FA02F070474FF00000704712F1610F68
:1009600001D1420202D14FF0FF3070474FF000003A
:10097000704700BF53B94AB9002908BF00281CBFFF
:100980004FF0FF314FF0FF3000F06CB9ADF1080CC3
:100990006DE904CE00F006F8DDF804E0DDE902239D
:1009A00004B070472DE9F047089E0D4604468E4678
:1009B000002B40F082808A42174646D9B2FA82F272
:1009C0004AB1C2F1200105FA02F320FA01F1974081
:1009D00041EA030E94404FEA1748230CBEFBF8FC93
:1009E000B9B208FB1CEE43EA0E430CFB01F098423F
:1009F0000AD9FB180CF1FF3580F01681984240F2BD
:100A00001381ACF1020C3B441B1AA4B2B3FBF8F007
:100A100008FB103344EA034400FB01F1A14209D969
:100A20003C1900F1FF3380F00181A14240F2FE80C9
:100A300002383C44641A40EA0C4000211EB1D44004
:100A40000023C6E90043BDE8F08702B9FFDEB2FA31
:100A500082F2002A4FD1CB1B4FEA174E1FFA87F8BC
:100A60000121B3FBFEFC250C0EFB1C3345EA0345BC
:100A700008FB0CF3AB4207D97D190CF1FF3002D211
:100A8000AB4200F2E7808446ED1AA3B2B5FBFEF05C
:100A90000EFB105543EA054408FB00F8A04507D9B2
:100AA0003C1900F1FF3302D2A04500F2D78018466E
:100AB000A4EB080440EA0C40C0E78B4208D9002EA2
:100AC00000F0AF800021C6E900050846BDE8F087C8
:100AD000B3FA83F100294BD1AB4202D3824200F238
:100AE000B780841A65EB030301209E46002EAAD02E
:100AF000C6E9004EA7E7C2F1200C01FA02F39740C5
:100B000020FA0CF04FEA174E21FA0CFC1843BCFBFC
:100B1000FEF1050C0EFB11CC1FFA87F845EA0C45D7
:100B200001FB08F3AB4204FA02F409D97D1901F183
:100B3000FF3C80F08B80AB4240F2888002393D441C
:100B4000EB1A85B2B3FBFEF00EFB103345EA03450A
:100B500000FB08F3AB4207D97D1900F1FF3C71D2CD
:100B6000AB426FD902383D44EB1A40EA014178E7C5
:100B7000C1F1200C8B4022FA0CF71F4320FA0CF431
:100B800005FA01F34FEA174E25FA0CF51C43230C26
:100B9000B5FBFEF91FFA87F80EFB195543EA054528
:100BA00009FB08FAAA4502FA01F200FA01F308D992
:100BB0007D1909F1FF3047D2AA4545D9A9F10209AB
:100BC0003D44A5EB0A05A4B2B5FBFEF00EFB1055A3
:100BD00044EA054400FB08F8A04507D93C1900F198
:100BE000FF352DD2A0452BD902383C4440EA0940BC
:100BF000A4EB0804A0FB02894C45C6464D4619D318
:100C000016D05EB1B3EB0E0264EB050404FA0CFCE3
:100C1000CA404CEA0202CC40C6E900240021BDE8EB
:100C2000F087314630460EE7AC46EDE6184601E760
:100C30004345E6D2B8EB020E69EB07050138E0E761
:100C40002846D3E760468FE78146BAE7614677E7F3
:100C500008464BE7ACF1020C3D4415E702383C4432
:100C600026E700BF704700BF08B5054C022000F022
:100C700011FA00F0D1FB2060032000F0F7F9F5E74E
:100C80007007002008B5044C032000F003FA206828
:100C900000F05EF9F8E700BF7007002038B500F0FB
:100CA000B3FA00F0A1FB01221146104600F0C8F98A
:100CB00001220021022000F0C3F9012200210320BB
:100CC00000F0BEF91F49012000F006FA1E4902207B
:100CD00000F002FA1D49032000F0FEF906F083FA45
:100CE000044600F0BFFB00F003FB18B100F00AFB64
:100CF00000F03CFC012000F09BF910B1012000F055
:100D000013FD022000F094F910B1012000F020FD45
:100D1000032000F08DF910B1002000F005FD042043
:100D200000F086F910B1022000F012FD64340025B5
:100D300006F059FAA04271EB0503CFDA642006F001
:100D400060FAF5E75D710000690C0000850C000099
:100D500008B5054B1B7813B1044806F096FA044B0E
:100D600001221A7008BD00BF140F00201489000072
:100D70000E0F002008B5054B1B7813B1044806F090
:100D800084FA044B01225A7008BD00BF140F0020E2
:100D9000268900000E0F002008B5054B1B7813B103
:100DA000044806F072FA044B01229A7008BD00BF95
:100DB000140F0020388900000E0F002008B5054BE5
:100DC0001B7813B1044806F060FA044B0122DA7074
:100DD00008BD00BF140F00204A8900000E0F00203C
:100DE00038B50B780C46062B27D8DFE803F0121233
:100DF0000412121312008B68CA68124D1249284659
:100E0000194406F0DDFBE3680022EA540F4B01228F
:100E10001A6038BD0E4B186883680B49DC680122E4
:100E20004FF47A73A0470B4B014618600028F0D0AE
:100E3000BDE83840084806F028BABDE83840074801
:100E400006F023BA130F0020120F0020FC07002029
:100E5000F8070020A80700205C89000084890000B2
:100E600010B586B01422002101A806F0B4FB0F4A89
:100E70000223CDE9032302930A238DF814300C4B8F
:100E8000186838B90B4806F000FA4FF0FF342046D6
:100E900006B010BD836801A95B6898470446002826
:100EA000F5D00146044806F0F0F9F0E70C0F0020F9
:100EB000740700209B890000CA890000014B188834
:100EC000704700BF0C0F002010B50B480B4C04F00E
:100ED00031FD206010B90A4806F0D7F92068836810
:100EE00008491B689847014610B1074806F0CDF93C
:100EF000064B0122DA6010BDEA8900007407002069
:100F0000F08900000C890000118A00000070004088
:100F100008B50A4804F00EFD094B186028B90948C5
:100F200006F0B3F94FF0FF3008BD074B18780028E2
:100F3000FAD0064806F0A9F90020F5E7408A00003B
:100F4000AC070020468A0000140F0020678A0000CA
:100F50002DE9F04F014687B02E48FFF745FB2E4B99
:100F60001B7804462BB1FFF7BFFC01462B4806F067
:100F70008CF92B4B20461F68FFF7DCFC4FF47A7589
:100F800005FB00F66420B6FBF0F6BB6804AA5B68BC
:100F90000D2138469847039028B16FF0040121488D
:100FA00006F073F933E0DDE9044BA4FB058905FB8A
:100FB0000B991D4A002340464946FFF7DBFC1B4BBB
:100FC0004FF0FF324B4508BF4245824602D26FF0D8
:100FD0008501E4E7A6FB044506FB0B55124A0023F6
:100FE00020462946FFF7C6FC104A4FF0FF31AA42BF
:100FF00008BFA1420346EAD3BA6803990091146876
:101000000D2152463846A04701460028C7D107B0F7
:10101000BDE8F08F0000C842140F0020818A000054
:10102000AC070020928A000040420F003F420F00B0
:10103000024A431E0021D05CD15470470E0F00209D
:10104000012802D1064806F0C0BF022801D1054898
:10105000F9E7032801D10448F5E74FF0FF30704766
:10106000B0070020C8070020E0070020012802D1B7
:10107000054804F035BF022801D10448F9E70328E8
:1010800001D10348F5E77047B0070020C8070020EA
:10109000E0070020012806D10C484FF0FF324FF046
:1010A000FF3304F043BF022805D109484FF0FF3257
:1010B0004FF0FF33F5E7032805D106484FF0FF3224
:1010C0004FF0FF33EDE74FF0FF307047B0070020DF
:1010D000C8070020E007002030B5012889B00B4682
:1010E00011D1002400250022CDE90645CDE90302F7
:1010F000174918480092CDE901224FF4806204F0AC
:101100008BFD09B030BD02280FD100200021002244
:10111000CDE906010121CDE90312CDE901220092BA
:101120000D490E484FF48062E9E70328E9D1002019
:1011300000210022CDE906010121CDE90312CDE90C
:1011400001220092064907484FF48062D7E700BFAA
:10115000001500207802002020190020F80200204D
:10116000401D00207803002038B51D481D4D04F0B7
:10117000E1FB286028B91A491B48BDE8384006F051
:1011800084B88368194C5B6A3BB96FF057032360DE
:10119000BDE83840164806F078B8164998472060F0
:1011A0005830F5D0286883681B6823B96FF0570161
:1011B00021601148E1E7114900229847014620606B
:1011C0000028F6D1286883680D49DD6801224FF4B4
:1011D0007A73A8470146206008B10A48CDE738BDB8
:1011E000A88A0000F8070020AF8A0000A8070020A6
:1011F000DB8A0000D88600000B8B0000E10D0000A8
:10120000120F00205C89000010B52F4804F092FBFB
:1012100004460B2105F0C5FF002801DAFF2010BDB0
:101220000C21204605F0BDFF0028F7DB18212046E1
:1012300005F0B7FF0028F1DB1921204605F0B1FFCA
:101240000028EBDB0B21204605F0BAFF1F49204B9D
:101250004B6020464FF400638B6005F09AFF0C2131
:10126000204605F0ADFF1B491B4B4B6020464FF459
:1012700080538B6005F08DFF1821204605F0A0FFFC
:101280001649174B4B6020464FF080738B6005F07A
:1012900080FF1921204605F093FF1249124B4B6045
:1012A00020464FF000738B6005F073FF0F4B002456
:1012B0001C705C709C70DC70FFF706FEFFF754FF3B
:1012C000FFF726FE2046AAE7368B000078070020AD
:1012D000510D000084070020750D000090070020CC
:1012E000990D00009C070020BD0D00000E0F00208E
:1012F000034B186810B100221A600120704700BF2C
:10130000FC070020014B1878704700BF120F002027
:1013100008B5034B186005F066FF024B186008BD66
:10132000000800200C080020244B2DE9F041014664
:101330001868234EDFF89480FFF756F9054605F04C
:1013400052FF3368C01A61F10001FFF719FA044631
:1013500005F049FF30601B4ED8F800703168284610
:10136000FFF744F92146FEF7CBFE4FF07C51FEF724
:10137000C7FE3946FFF73AF913490446FFF7AAFAC0
:1013800028B900212046FFF791FA00B927462946DF
:101390003846FFF72BF9C8F8007035600021044685
:1013A000FFF77AFA40B908492046FFF793FA00B1EF
:1013B000054C2046BDE8F0810024FAE70008002033
:1013C0000C080020040800200000C8420808002083
:1013D000014B1860704700BF00080020014B1868DF
:1013E000704700BF00080020094A08B511460023D5
:1013F00002F8013B0433DBB2602BF9D1054B0878CE
:1014000000221A70FFF7A2F9BDE80840FFF780BF7D
:10141000160F00202E0F002008B50D4B1B787BB156
:10142000FFF74CFDFFF792F90A49FFF7DDF84FF09F
:101430007851FEF765FEFFF777FF074B186008BD90
:10144000064B93F90020064B53F82200F7E700BF44
:10145000150F002000004843100800202F0F002027
:10146000B000002008B52D4801F0C0FE2C4801F066
:10147000BDFE2C4801F0BAFE2B4801F0B7FE2B4B05
:101480001B78002B48D02A4801F0B0FEFFF7C4FFBC
:10149000FFF74EF802460B46264801F0A7FEFFF77D
:1014A0000DFD0146244801F0A1FEFFF707FDFFF7FF
:1014B0004DF92249FFF798F84FF07851FEF720FEDA
:1014C000FFF736F802460B461D4801F08FFEFFF786
:1014D00085FFFFF72DF802460B461A4801F086FEFD
:1014E000194B1868FFF724F802460B46174801F01D
:1014F0007DFE174B1748197801F078FE164801F069
:1015000075FE164801F072FE154801F06FFEBDE849
:101510000840144801F06ABE1348B5E73D8B00004F
:101520004C8B0000518B0000678B0000150F0020D2
:101530006F8B00007D8B0000888B0000000048430B
:10154000928B0000A28B000010080020B18B0000DD
:101550002E0F0020C68B0000DA8B0000EB8B000002
:10156000FE8B0000108C0000758B000032282DE9E6
:10157000F0412ED033287FD0312840F0B8805E482B
:101580005E4D5F4E01F032FE5E4801F02FFE0024FA
:10159000214615F8012B3046013401F027FE182CA6
:1015A000F6D1594801F022FEFFF7A2FE68B1FFF71D
:1015B000A9FE0D2809D1554B504A1B78D05CFFF786
:1015C000C5F8BDE8F041FFF703BF642005F019FE40
:1015D000EAE74F484F4E01F009FE612500242146FD
:1015E000304601F003FEFFF783FE48B1FFF78AFEA5
:1015F0007528054638D10134E4B2182C28BF0024E0
:10160000642005F0FEFD0D2DE9D13C4F4248395DC7
:10161000DFF8008101F0EAFD0025612629464046F9
:1016200001F0E4FDFFF764FE38B1FFF76BFE7528AB
:1016300006461DD1013525EAE575642005F0E1FD7A
:101640000D2EEBD135483D5501F0D0FD2E4801F06F
:10165000CDFDFFF74DFE18B1FFF754FE0D28AAD0BF
:10166000642005F0CEFDF4E76428C9D1013CC3E74E
:101670006428E2D1013DDEE7244E29483178254F28
:1016800001F0B4FD612500242146384601F0AEFD8D
:10169000FFF72EFE48B1FFF735FE7528054622D12B
:1016A0000134E4B2182C28BF0024642005F0A9FD01
:1016B0000D2DE9D1114B3470185DFFF747F8FFF796
:1016C00087FE164801F092FD0F4801F08FFDFFF7ED
:1016D0000FFE20B1FFF716FE0D283FF46CAF64201B
:1016E00005F08FFDF3E76428DFD1013CD9E70D4811
:1016F00001F07CFD5FE700BF518B0000160F00205A
:101700002F8C0000218C00003A8C00002E0F00204E
:10171000548C0000668C00006C8C00008E8C0000E5
:10172000AB8C0000C98C000008B5064B064A187047
:10173000064B1B78D05CFFF709F8BDE80840FFF7BF
:1017400047BE00BF150F0020160F00202E0F0020EF
:10175000084A92F9003001280CBF013303F1FF332E
:101760005BB2042B02DD042313707047002BB8BF5B
:101770000023F9E72F0F00200B6801330B60014BAA
:101780001B681847C4000020014B1860704700BF59
:10179000C400002007B50B46002102460191034812
:1017A00001A900F0EBF803B05DF804FB7917000025
:1017B0002DE9F84FB0F8189019F008080446934640
:1017C0000DD001290CBF49F0100949F02009A0F8FB
:1017D00018908BF31188BFF36F8FBDE8F88F09F075
:1017E0000709022907D1204605F05CFD0028F0D04A
:1017F0000128238B50D16769218B002F15DA2568CA
:1018000021F00701C4E9008841F00101218300268D
:10181000218B01F0070ACA4502D0A368002B5CD1D6
:101820000DB9002E74D0002358E001F007035A1FB1
:10183000012A20D821F00701062B256889B2C4E9C6
:1018400000880CD1002D2B4638BF00232BB1628BB2
:101850001B6801326283002BF8D141F00201218321
:10186000204605F01FFD06460028D1D0238B43F00B
:1018700020032383CBE7042B0CD121F0070189B28D
:101880002183204605F00EFD05460028BFD041F01B
:10189000200121830025BAE7032809D1226923F01A
:1018A0000703166843F00603238300252F46AFE79E
:1018B000042806D1226923F00703566843F0040385
:1018C000F2E7052806D1226923F00703966843F062
:1018D0000503E9E700252E46E8E7012341F008016A
:1018E00021838BF31188BFF36F8F03BB002D33D19E
:1018F00016B121492046B0474FF02003EFF3118B7A
:1019000083F31288BFF36F8F238B23F008032383A5
:10191000238BDA0628D523F0100323830121B4F8A2
:10192000189009F0070900297FF45BAF51E7A1681F
:101930000029DBD00B68D1F804B0002B38BF00239E
:10194000994652463B462046D847B9F1000FCDD0C4
:10195000D9F800304946EEE729463B465246204634
:101960002D6805F0BBFCC1E713F020011EBF23F07A
:10197000200323830221D2E7097300002DE9F04FF1
:10198000A5B08846039091461C46002599F80000B2
:1019900010B9284600F015BE09F101032528099366
:1019A00007D04146039B98470028C0F20A860135BC
:1019B00045E21822002116A805F00DFE99F8013025
:1019C000252B79D00022099816469646174694464C
:1019D000014610F8013B2B2B00F09E8000F2958011
:1019E000202B00F09B80232B00F09B80BCF1000F8C
:1019F00005D09DF8600040F004008DF860002FB124
:101A00009DF8600040F008008DF86000BEF1000F06
:101A100005D09DF8600040F010008DF860002EB1F8
:101A20009DF8600040F020008DF860002AB19DF81C
:101A3000602042F040028DF860209DF8602002F0A6
:101A40004400442803D16FF386128DF860209DF87E
:101A500060202A2B42F080028DF860207CD19DF816
:101A6000612042F001024B1C8DF861201A782E2A69
:101A70009DF861200CBF0121002161F341028DF826
:101A8000612075D15A782A2A6BD0013300210A26A9
:101A9000184610F8012BA2F13007092F40F2AA8056
:101AA0009DF860201A91C2F3400040EAD17161F3C1
:101AB00041028DF860205BE009F1020209928DF885
:101AC00063309DF86130DE0740F16F8154F8042BDC
:101AD0000892002A08DA9DF8602042F004028DF88E
:101AE0006020089A52420892580740F1668154F8E3
:101AF000047B002F80F265819DF861306FF3410314
:101B00008DF861304FF0FF375BE12D2B0BD0302B80
:101B10007FF46CAF01225BE7012759E74FF0010E1C
:101B200056E7012654E74FF0010C51E70CFB020287
:101B3000303A33461E4616F8010BA0F13007092F44
:101B4000F4D9994292D09DF860101992D20F62F3A5
:101B500041018DF8601089E70B4600224FF00A0C16
:101B6000E8E79DF8612042F004028DF8612002331D
:101B7000194611F8012B6C2A5CD040D8682A46D04F
:101B80006A2A61D04C2A67D019460B4613F8012BFC
:101B90000993782A8DF8632000F2DF80572A68D8ED
:101BA000412A04D0A2F14503022B00F2D6809DF811
:101BB000623002F0DF020421A2F1410A61F3020364
:101BC000DAF100029DF861108DF8623042EB0A02F2
:101BD00062F3C7110A068DF86110CBB200F1E38001
:101BE00003F07802182A40F0B5806FF3C6038DF831
:101BF00061309CE006FB01213039034648E7742A36
:101C000026D07A2AC0D19DF8613006220DE05A789C
:101C1000682A9DF8612006D1012161F3C6028DF882
:101C20006120991CB1E71346022262F3C6038DF8C6
:101C30006130AAE75A786C2A9DF8612001D104210D
:101C4000EBE713460322F0E79DF861300522ECE74D
:101C50009DF861300722E8E7BDF8603023F4F043D7
:101C600023F0020343F4804343F00203ADF86030F5
:101C70008BE7A2F15803202B6FD801A151F823F074
:101C8000331D00005B1D00005B1D00005B1D00009C
:101C90005B1D00005B1D00005B1D00005B1D000064
:101CA0005B1D0000AF1B00005B1D0000331D00002A
:101CB000051D0000AF1B0000AF1B0000AF1B0000A4
:101CC0005B1D0000051D00005B1D00005B1D00008A
:101CD0005B1D00005B1D0000691D0000331D00003E
:101CE000891D00005B1D00005B1D0000891D0000B8
:101CF0005B1D0000331D00005B1D00005B1D00002C
:101D0000331D00009DF86230012161F302038DF85C
:101D100062309DF8613003F07803402B02BF9DF8DC
:101D2000601041F001018DF86010632A05D0002396
:101D300006E09DF862300221E7E7003B18BF01236F
:101D40009DF86020C2F340010B4363F341028DF81C
:101D50006020B6E613F0380FE9D09DF8603043F00C
:101D600001038DF86030E2E79DF86230032262F3F0
:101D700002038DF862309DF8613003F07803A3F11F
:101D800040077B427B41DBE79DF86230032262F330
:101D900002038DF862309DF8613013F0780F14BFA4
:101DA00001230023CCE70123CAE79DF96020002A24
:101DB000B4BF199A4FF0FF3295E699077FF5A2AEAE
:101DC0001A9F0023CDE919339DF8623003F0070311
:101DD000042B09D19DF861309A0705D49DF9613033
:101DE000002BB4BF0D2706279DF862309DF86110C7
:101DF00003F00703012BC1F3C30136D1CB1E042B23
:101E000020D8DFE803F00307071F1F0054F8042B56
:101E1000D31704E0073424F00704F4E80223CDE9E3
:101E200016239DF86060B30755D0099B03984A4676
:101E3000414605F06EFB0028C0F2C3830544DDF87F
:101E40002490A3E554F8042B01294FEAE273CDE96D
:101E5000162305D19DF85830169300231793E0E719
:101E60000229DED1BDF95820D2E7022B23D1CB1EA7
:101E7000042B13D8DFE803F0030A0A1212002268C9
:101E800016920023201D17930446CAE7073424F056
:101E90000700F0E80223CDE91623F5E754F8043BE8
:101EA000169301294FF000031793D3D00229B8D11C
:101EB000BDF85830D0E7042B07D1073424F00704CD
:101EC000F4E80223CDE91623ABE7032B04BF54F853
:101ED000043B1693A5E79DF86390B9F1780FAED84F
:101EE000B9F1570F00F2A680B9F1250F00F0EC8090
:101EF000B9F1240FA3D9B9F1410F03D0A9F14503DA
:101F0000022B9CD8DDE91623002A73F10001C0F2F0
:101F1000D381310700F1D28116F0100618BF2026B8
:101F2000C3F30A5BC3F3130306920793DDE90623A9
:101F3000CDE91223BBF1000F40F0C281DDE906328A
:101F4000134314BF4FF0010C4FF0000C0799CB0264
:101F50000699CA0243EA515358464BEA02010C91D2
:101F6000C11719430D91DDE90C01B9F1460F08BF06
:101F70004FF066090143CDE9122300F01482BCF151
:101F8000000F40F0D481129B0493139B43F0004355
:101F90000593DDE90423CDE912230023ABF2FE3BD8
:101FA0001A4605211BF1020FC0F2CA811BB1DDE9FF
:101FB0000401CDE91201BBF1000FDDE9123100F39C
:101FC000DA811399129BCBF104000BF11C0B01FA7F
:101FD0000BFBA0F1200CC34021FA0CFC43EA0B03DD
:101FE00043EA0C03C140CDE9123109F0DF03472B6E
:101FF00040F0E081D01C02DB974280F2D781A9F14A
:102000000209002F5FFA89F900DD013F9DF8603079
:10201000990600F1CF81002FD4BF00230123B9F12D
:10202000660F0E9340F0C881BB1840F1C6814FF097
:10203000000AC6E1A9F15803202B3FF600AF01A228
:1020400052F823F0592200003F1E00003F1E0000FE
:102050003F1E00003F1E00003F1E00003F1E00000C
:102060003F1E00003F1E0000051F00003F1E000035
:10207000F5200000F9210000051F0000051F0000E9
:10208000051F00003F1E0000F92100003F1E000058
:102090003F1E00003F1E00003F1E00008F22000078
:1020A000592200005D2200003F1E00003F1E00007C
:1020B000CF2000003F1E0000592200003F1E0000FC
:1020C0003F1E000059220000414648466AE4002FA6
:1020D000DDF858900ADB3946484605F05CFA09EB12
:1020E000000A0026B9F1000F0CD1A8E6484605F019
:1020F0004BFAF4E7169B8DF8743000260DF1750A43
:102100000DF17409AAEB090206B101329DF86200D3
:10211000C30640F14B8202321999089B40060A44DB
:1021200044BF1A995218002B25DD9B1A9DF8602098
:102130005107C2F3800B00F14B82570640F14482F5
:10214000002E00F0438208934146039B3046984797
:102150000028C0F23682089B01355E46302708937E
:1021600003EB050B089BABEB0305002B03F1FF33DF
:10217000089300F31F823EB1039B414630469847C7
:102180000028C0F21E8201359DF86220560640F1FB
:102190007D829DF96120002AC0F21C82A5EB090511
:1021A00099F80000A0F13002092A4F4605EB090B0F
:1021B00009F1010940F23E829DF86220199E9006C5
:1021C00008D406EB0B09002EA9EB060B06F1FF362F
:1021D00000F3378238782E280BD1039B414698476D
:1021E0000028C0F2EE81002E0BF1010B00F33182CA
:1021F0000137ABEB070B37E230072BD416F0100694
:1022000018BF2026DDE91623002A73F1000105DA44
:10221000524263EB4303CDE916232D260DF18D03C6
:102220000093DDE916011DAB18AA05F027F98146D8
:10223000002F0DF18D030BDB9DF86010A3EB09025D
:102240006FF3861197428DF8601001D9BF1A199764
:102250009A4647E72B26D5E70026DFE716980028A1
:1022600000F09E810DF18D03009318AA1DAB002193
:1022700005F004F9BDF8623003F0EF0343F4F043D6
:1022800043F010038146ADF862300026D0E7169B7C
:1022900007293FF6D4ADDFE801F00D04060D08086C
:1022A0000D0D1D70CBE51D80C9E52846E917C3E972
:1022B0000001C4E51D60C2E52D2631E62B262FE680
:1022C00040F2FF739B452DD1DDE906231343A9F1AD
:1022D000410918D1B9F1190F95BF44F6496346F683
:1022E0006963ADF87430ADF8743094BF462366234B
:1022F0008DF876309DF860306FF386138DF860307E
:102300000DF1770AFCE6B9F1190F95BF44F24E13AF
:1023100046F26E13ADF87430ADF8743094BF4E23AE
:102320006E23E5E74FF0000C10E60BF1FF3B92182F
:102330005B41002A73F10001F7DACDE9122322E6AE
:10234000049B05985B0843EAC0734008B0F1333F33
:10235000DC46CDE904300BF1010BF1D2A3FB01AB5C
:10236000CDE904AB059B4843C31805930CF1020B60
:10237000013A012316E6023341F1000112A8CDE92A
:1023800012310E9205F043F80E9ADDE912010BF1BD
:10239000FF3B013200184941002871F100030BF1A5
:1023A000FF3BF7DA05E6002293460AE6BF1A4FF034
:1023B00066092BE6002332E67B1C102BA8BF1023F6
:1023C0009A461021119100204FF00061CDE91401CF
:1023D0000AF1FF3ABAF1FF3FDDE914101FD1129B59
:1023E000CB180A93139B40EB03030B93DDE90AAB75
:1023F0006FF070414FF0FF30594508BF50451AD378
:1024000050465946CDE91201B9F1660F53D1002A61
:1024100020DC30238DF874300DF1750A2BE049086B
:1024200041EAC0714008CDE9141014A80F9204F0DD
:10243000EEFF0F9ACCE70A9B0F920B9A5B0843EAD8
:10244000C273510812A8CDE9123104F0E0FF0F9ACF
:102450000132D9E70DF1740A1199002909DD11A99A
:1024600012A80F9204F0F3FF0F9A0AF8010B013A39
:10247000F2D1199200229DF86010880601D4002F35
:102480003FDD53462E2103F8011B92B1002F75DD6D
:102490005142B942A8BF39469DF8620019910029FE
:1024A000A7EB0107D4BF0021012161F345108DF88E
:1024B00062009A4620E011A912A80F9204F0C7FF0B
:1024C0000F9A9DF860308DF87400302818BF02F123
:1024D000FF32990601D4002F52DD2E238DF875307E
:1024E0000DF17603E5E711A912A80F9204F0AFFFF2
:1024F0000F9A0AF8010B013F002F02DD1199002904
:10250000F1DC0E9B002B3ED11A9709F0DF01452923
:1025100022D1002A5046BABF52422D212B21632AD4
:1025200000F8029B8AF801100ADD642792FBF7F19C
:1025300001F1300C0AF103008AF802C007FB1122F6
:102540000A27824692FBF7F107FB112201F1300CBA
:1025500030320AF802CB4270199A002A1EDC1A9A0D
:10256000002AD4BF002201229DF8621062F3861176
:1025700000228DF862108AF80020C1E59A46C0E773
:102580000DF1750ABDE700211A9150461AF8011D98
:102590003029FAD02E2918BF8246B6E70122E3E798
:1025A000DFF838A10646AAF10509ABE5070748BFE1
:1025B0000132B1E5039B4146384698470028BFF6F3
:1025C000D1AD25B0BDE8F08F2027C8E53027C6E59E
:1025D0000893D0E5A5EB090B4E460BEB090519F85E
:1025E000010B702820D11A9A02EB0509A9EB05020C
:1025F000002A43DC534632460398414604F089FFE3
:102600000028DEDB089B2844034405469A46AAEBD3
:102610000503002B7FF713AC039B4146202098470E
:102620000028CEDB0135F2E7039B4146984700289E
:10263000D2DAC6E7039B414698470028BFF6B0AD03
:10264000BFE7039B4146302098470028BFF6BBAD4B
:10265000B7E7039B414630209847013EC0E5039B06
:10266000414698470028ACDB3E460BEB070517F8C0
:10267000010BA0F13002092AF1D9B4E7039B4146CE
:102680003020984700289CDB0135AFE7D10601D404
:10269000120706D5039B414630209847002890DB5F
:1026A00001359DF86220D30607D59DF86300039B92
:1026B00041469847002884DB0135199E2E44721B41
:1026C000002A02DC53464A4696E7039B41463020E7
:1026D00098470028FFF675AF0135F0E7EB8C000056
:1026E00008B54FF02002EFF3118382F31288BFF395
:1026F0006F8F00F0BFFD034804F0C7FD00F0E6F95E
:10270000FCE700BFEC8C00002DE9F84305464FF0D4
:102710002003EFF3118683F31288BFF36F8F104B02
:102720001C68002C38BF00249CB10E4FDFF83880A5
:102730004FF00C09D4E90132002D08BF13462BB12C
:1027400098F8142009FB02F2B85C98472468002C22
:10275000F0D186F31188BFF36F8FBDE8F88300BF17
:102760001408002020080020B40E002000F01F03F1
:1027700001229A400A4BBFF35B8F400903EB8000B4
:1027800050E8003F43EA020140E8001CBCF1000FA2
:10279000F6D1BFF35B8F1A4214BF012000207047AF
:1027A0002C08002030B51D4B1D7DBFF35B8F05F05D
:1027B0001F0301229A401A4B690985B0D04303EBED
:1027C000810353E8001F01EA000443E8004CBCF118
:1027D000000FF6D1BFF35B8F114217D0114C0C22C2
:1027E00002FB054207CA01AB83E807000E4A7AB133
:1027F00093E8070004F010FF0020FFF785FF0C238B
:102800006B430022E118E250C1E9012205B030BD5E
:1028100082F31188BFF36F8FEEE700BFB40E002084
:102820001C08002020080020197600002DE9F04146
:10283000374BDFF8F4801C7D88B007462046FFF751
:1028400095FF60B96E463A462146304604F078FE60
:1028500096E807000C2505FB048585E807000C2396
:10286000634308EB030218F80300650904F01F0630
:10287000C8B37B1C0FD0D2F808E02648264A4FF494
:10288000004C00210023ECFB0E01FEF773F8012140
:10289000381A05F0CFFC03F0CDFB0120FFF734FF21
:1028A000BFF35B8F1D4B0122B24003EB850353E85E
:1028B000001F114343E800100028F8D1BFF35B8FDD
:1028C0000C2303FB048494E8070005AB83E80700AE
:1028D000134A1AB193E8070004F08BFEFFF762FF7A
:1028E00003F082FD01200F4ABFF35B8F0123B34049
:1028F000DB4302EB850555E8002F1A4045E800212F
:102900000029F8D1BFF35B8F08B0BDE8F08100BFAC
:10291000B40E00203F420F0040420F001C08002070
:10292000F37500002C08002020080020014804F066
:1029300083BA00BFE086000008B5D0B14368042B1D
:1029400011D100220368BFF35B8F53E8001F0129F8
:1029500003D143E800200028F7D1BFF35B8F07487D
:1029600008BF104608BD3BB1006803F073FA0020B1
:10297000F8E76FF4E040F5E70148F3E7E98FFFFF80
:10298000EA8FFFFF10B5044618B90D4B0D485B6880
:102990009847616808290DD031F004030AD011F07E
:1029A000020108D00848214605F0CDFA0023236033
:1029B0000023636010BD2068142204F00CFEF7E7CA
:1029C000A8010020158D00003008002010B5044635
:1029D00018B9164B16485B6898476368042B23D0D8
:1029E000082B21D0CBB92368BBB912484FF0FF3276
:1029F0004FF0FF33214603F0ADF808B923681BB947
:102A00000A4B0D485B68984720681422002104F0A7
:102A1000E2FD636843F002036360206805F0CEFACC
:102A2000636843F00103636010BD00BFA80100208C
:102A3000158D0000300800203B8D000008B508B35C
:102A40004368042B10D101220368BFF35B8F53E866
:102A5000001F002903D143E800200028F7D1BFF36D
:102A60005B8F0BD1002008BD53B100684FF0FF32DF
:102A70004FF0FF3303F070F90028F3D00348F2E77A
:102A80000348F0E76FF4E040EDE700BFE98FFFFF98
:102A9000EA8FFFFF08B5064906484023142205F0D7
:102AA00037FABDE808400449044804F027BA00BFDB
:102AB0004C08002030080020F8860000E88600005E
:102AC000014910220A60704710ED00E072B64040E4
:102AD00080F31188BFF36F8FBFF34F8F30BF62B6A3
:102AE000BFF36F8F704700BF72B6494081F3118802
:102AF00020BF80F3118862B6704700BF43B2002B3D
:102B000008DB012200F01F0002FA00F05B09024A14
:102B100042F82300704700BF00E100E0054B420986
:102B200000F01F0053F82220012303FA00F01040A8
:102B3000704700BF00E100E043B2002BA8BF03F1E3
:102B4000604301F10101B8BF064B4FEA4111ACBF30
:102B500003F5614300F00F00C9B2B4BF195483F804
:102B60000013704714ED00E030BFFFF7FDBF00BF5A
:102B70000B4A08B50B4B22F07F029A60BFF34F8FD0
:102B8000BFF36F8FD3F8882022F47002C3F8882037
:102B900002F042FF03F072FD00F0D0F902F046FFB0
:102BA0000000000000ED00E0094A0A499368096846
:102BB000D967094998674B6843F080534B600023FD
:102BC00083F31188BFF36F8F9368D86F704700BF8E
:102BD000B40E00208088000000ED00E012498A68F1
:102BE0004FF030001044EFF3098C80E8F01F2020F4
:102BF00080F31288BFF36F8F0C4F4FF00066CA69E5
:102C00008A603E60906F0023936780F3118804B55B
:102C1000104600F029FABDE8044002F1300090E8C7
:102C2000F01F8CF309887047B40E002004ED00E01B
:102C30001EF0040F0CBFEFF30880EFF309808169E9
:102C400011F8021C0229FFD001B504F084FC01BD7B
:102C500042F8203C009B42F81C3C0A49019B42F888
:102C6000183C029B42F8143C21F001014FF08073A4
:102C700042F8043C42F8081C0023203A02658367AE
:102C8000704700BFFB7300000B4A0346906890B189
:102C900013F1160F806E05D0A0F120029A4206D8DB
:102CA000834204D281422CBF0021012100E0002197
:102CB000002908BF00207047B40E002008B5094B5A
:102CC00098600D46144600F0CFF9204685F3098838
:102CD000002163B681F31188BFF36F8F00220023B8
:102CE00004F08BFBB40E002001B572B60B4A90695C
:102CF00000281EBF0021916105F059F962B6EFF37B
:102D00000580A0F110004FEAC0000549014409C93F
:102D10009847BDE80140034908470000B40E002071
:102D200018850000292D0000044B9968D869884255
:102D300003D003494FF080520A607047B40E002060
:102D400004ED00E038B5194B14469A6A9A6A9A6AFB
:102D50000546900719D5586B9A6A120615D519B110
:102D60009A6A22F080029A629A6A9A6A9A6AD106EC
:102D70000ED49B6A9A070BD400200C4A936A43F046
:102D8000FF0393620023237038BD6FF01500EBE75B
:102D9000064B5B681B05EFD52946FFF775FF00283A
:102DA000EAD080F309880220E7E700BF00ED00E0E9
:102DB0000D4B9A6A9A6A9A6A920508D59A6B9A6A32
:102DC000120404D518B19A6A22F400429A62064BA2
:102DD0009A6A9A6AD20558BF9A6A9A6A002042F49F
:102DE0007F429A620870704700ED00E0074B9A6AD4
:102DF0009A6A9A6A9A6A9A6A9A6A9A6A6FEA02421E
:102E00006FEA12429A620020704700BF00ED00E0B6
:102E100070B53E4B5B688AB00D46C3F308030026CD
:102E200086F31188BFF36F8F02F07F41B1F17F4FBE
:102E300011D102F00C0108290DD0120701D405466A
:102E400001260022033B8DF80720032B57D8DFE82B
:102E500003F0044E524B3546F3E72C4BDC6A14F07A
:102E600002044CD1DA6A002A18DBDB6A5B0015D554
:102E7000AB6933F8022C4DF602739A420DD003F180
:102E8000604303F626631B7803B30DF107020121AB
:102E90002846FFF757FF044600E02C689DF80730EE
:102EA00093B92022294602A804F08AFB099B46B365
:102EB000C3F3080222B96FEA53236FEA432309934D
:102EC00002A9204604F045FB0AB070BD104B1B78E8
:102ED0002BB10DF107010120FFF76AFFDBE70D4B76
:102EE0001B889BB2002BD9D0FFF780FFD3E70DF1F1
:102EF00007020021CCE70DF107010020ECE70024D8
:102F0000CCE723F4FF7323F00103D8E700ED00E0E2
:102F100029ED00E02AED00E0024A536943F0100376
:102F20005361704700ED00E0EFF30880EFF3098193
:102F300001B57246FFF76CFF01BD00BF04480023D6
:102F40002021C2180133302B82F80013F9D17047C9
:102F500000E100E0002080F31488BFF36F8F05F0DC
:102F600045FA00200D490860BFF34F8F0C4880F3ED
:102F7000088800F029F8202080F3118809484FF4D0
:102F80000261401880F30988EFF31480022108439E
:102F900080F31488BFF36F8FFFF7EAFD94ED00E034
:102FA00060250020E0260020064A11680023C1F3B6
:102FB000072118468B4200D170479360106101339E
:102FC000F8E700BF90ED00E008B572B6002383F388
:102FD0001388FFF7E9FF144B4FF0FF32C3F880204E
:102FE000C3F88420C3F88820C3F88C20C3F890204D
:102FF000C3F89420C3F89820C3F89C20C3F880211C
:10300000C3F88421C3F88821C3F88C21C3F8902128
:10301000C3F89421C3F89821C3F89C2162B6BFF38A
:103020004F8FBFF36F8F08BD00E100E0064B9B6838
:10303000834207D1EFF3058323B1044A536843F079
:103040008053536003F0B6BAB40E002000ED00E0E8
:10305000024B034A0348012100F068B80000042035
:10306000000000200C870000826E054B203A1A6099
:10307000044A2021C3E901121846012100F060B87A
:103080004C0D002000000B15F0B51E4F00268E429F
:1030900001DB1046F0BD446884B353B104F1FF3C3A
:1030A00014EA0C0F18D11F2C16D905681CEA050F5D
:1030B00012D1202C0568D0F808C0D2B20FD9B4F1D3
:1030C000004F0ED8013CB4FA84F4C4F11F0464002C
:1030D000072A4CEA040406D96FF01502D9E7082440
:1030E000F6E73E24F4E725F01F05154345F01005EB
:1030F00044F00104BA60FD6001323C6101360C30DD
:10310000C5E700BF90ED00E0034B05225A60BFF316
:103110004F8FBFF36F8F704790ED00E0BFF35F8F6D
:10312000014B00225A60704790ED00E010B5034C4F
:1031300001232278FFF7A8FF207010BD300F002078
:1031400008B5084A00231278FFF79EFF10F1160F0A
:1031500003D0054B0022072800DD08BD98601A61E6
:103160000130F8E7300F002090ED00E013490868C7
:10317000082810B51ED8FFF7D1FF114C496800226E
:10318000904201F10C0105D10E4B1870FFF7BCFF06
:10319000002010BDA26051F80C3C23F01F03134324
:1031A00043F01003E36051F8043C43F00103236152
:1031B0000132E5E74FF0FF30EBE700BF1887000072
:1031C00090ED00E0300F0020014B1860704700BF09
:1031D000E80000200239012902D8034B1B68184778
:1031E0004FF0FF30704700BFE80000200FB407B574
:1031F00004AB022153F8042B04480193FEF7BEFBF5
:1032000003B05DF804EB04B0704700BFEF75000039
:103210004FF02003EFF3118183F31288BFF36F8F18
:103220000F4A0123C2F840354FF08042C2F878358A
:103230000C4A1268082A08D10B4A1268052A04D8D9
:103240000A48825C0AB10A4A13604FF080430122A7
:10325000C3F8802581F31188BFF36F8F002070477A
:1032600000E001403001001034010010778D0000B3
:10327000380600404FF08043C0B2C3F81C05BFF3CE
:103280004F8F0549054BCA6802F4E0621343CB60D7
:10329000BFF34F8F00BFFDE700ED00E00400FA052B
:1032A00020B1034B800143F001031847704700BF72
:1032B000D0860000054A0123C2F8003508B1D3606A
:1032C00070471360024A1360704700BF00700040EF
:1032D00004700040087970B500F01F04072C1FD857
:1032E0000B78092B1CD8DFE803F006060606061B40
:1032F000051E1B2005234A78032A18D0042A0FD163
:1033000000254A8844F20A06B24244D011D844F259
:103310000306B2423BD044F20506B24239D0D2B3E2
:103320006FF0150032E00623E5E70723E3E7012508
:10333000E7E744F21406B2422FD044F22806B24224
:103340002DD044F20F06B242EAD10322C0F340105E
:103350001B0243EA005343EA053343EA02432201D6
:1033600002F1804202F5E0420020C2F81835230144
:1033700003F1804303F5E0438A79C3F81425C3F8C9
:103380001005084B1C444B7984F8A83070BD00220E
:10339000DCE70122DAE70222D8E70422D6E7052299
:1033A000D4E700BF00000020F7B50546406810B91B
:1033B0006FF015009CE030F0FF02F9D1574C584FE8
:1033C000114620FA02F313F0010333D0BB1893F82F
:1033D000A8C0BCF1000FEBD004EB021E6E7CDEF83F
:1033E0001835003E18BF012623F0807343EA0663B8
:1033F000CEF8183502F151031B01013144F803C026
:10340000C9B20132082ADCD12B7C083B062BCFD86D
:1034100001A252F823F000BFFD340000B1330000D8
:103420003F340000B1330000F5340000B133000038
:10343000F934000002F151063601A351E1E70122FF
:10344000364B0129C3F8F0256A7C59D9002AAFD13F
:10345000C3F8F4252A684B0012B1928902FB0333AA
:10346000EA689A4256D32D4BAA68C3F82C262F46F9
:10347000C3F830160FCF2A4C04F17C060FC63B6808
:1034800033602B6800262667002B3CD00FCB04F15D
:10349000900585E80F00E567A4F8A06098B3BFF336
:1034A0005B8F54E8003F44E80062002AF9D1BFF383
:1034B0005B8F1C48D4F890601B4A4FF400450021F4
:1034C0000023E5FB0601FDF755FA0022CDE90001D6
:1034D000002304F1080003F08DFA94F87830BBB9AA
:1034E00012484FF0FF324FF0FF3302F01FFD206F04
:1034F00003B0F0BD0222A3E70322A1E700229FE769
:10350000082AA5D954E794F88E00FFF7D3FEE4E724
:103510000020EDE76FF00B00EAE700BF007000400D
:10352000000000203F420F0040420F0058000020E2
:1035300070B50C4616460D4D4FF0FF324FF0FF337D
:1035400005F1400002F0F2FC0123204685F87830B6
:103550006E67FFF729FF95F87830044603B110B184
:10356000034802F0BDFC204670BD00BF00000020F3
:10357000400000200D4B10B500241C601B680C4B54
:103580001C601B680B4B1222C3F804230720FFF7B3
:10359000B5FA224601210720FFF7CEFA0648836CD0
:1035A00013B9403002F09CFC002010BD04710040B3
:1035B000107100400070004000000020344B1A6879
:1035C00010B5002A55D000221A601B68314C324BCE
:1035D00001211960C3F8F824E36FDBB3D4F8943009
:1035E00043B1B4F8A02004F17C019847012814D01D
:1035F000022829D0B4F8A030B4F89C209A4223D9EC
:103600000133A4F8A030254BD3F82C26D3F8341678
:1036100089B202EB4102C3F82C26D4F890302BB9C2
:1036200094F88E00BDE81040FFF744BEBFF35B8FF7
:1036300054E8003F5A1E44E800210029F8D1BFF3A6
:103640005B8F012BECDC10BDD4F8903013B1144823
:1036500004F020FE94F878304BB1606F10B1002177
:1036600003F028FA0F48BDE8104002F039BC0E48BC
:10367000F9E70E4B19680029E5D01A60064A1B6865
:103680000123136042F8083C42F8043CDBE700BF2A
:1036900004710040000000200870004000700040ED
:1036A0000800002040000020580000201071004059
:1036B00038B50C460C4D4FF0FF324FF0FF3305F19B
:1036C000400002F033FC0023204685F878306B6719
:1036D000FFF76AFE95F87830044603B110B103484D
:1036E00002F0FEFB204638BD000000204000002014
:1036F0000E4A70B5841AA3100D4C5C430546E4B223
:103700000C2000FB04200E464021084403F0AFFFCC
:10371000011E05DB074B03EBC404636898470021D7
:1037200028463346BDE87040184700BF680D0020AA
:10373000B76DDBB6608700002DE9F041104E841BA9
:10374000A310104C5C43E4B20C256543804605F1A0
:1037500040000F463044402103F0A2FF011E09DB68
:10376000094A7319C3E90E27084B53F83430BDE8F2
:10377000F041184740463B46BDE8F041184700BFBE
:10378000680D0020B76DDBB603770000608700008E
:10379000002270B5012104461046FFF7CDF9002044
:1037A000FFF7ACF90F4801F069FB0F4B984215D1B8
:1037B00004F0E8FA26690D49304603F0C2FD0028FE
:1037C0000BDB012535642469084904F11C0003F072
:1037D000B8FD002801DBE564002070BD6FF0040037
:1037E000FBE700BF253800000000AD0B708700002C
:1037F00001460C2309484B4370B5C418D4E90E5652
:1038000000224033A263184403F068FF2DB1324612
:103810002B460348BDE87040184770BD680D002076
:103820007084000010B1012804D07047034B1B6C5A
:103830005B0701D1FFF7DCBF704700BF680D0020B8
:1038400008B54FF02003EFF3118183F31288BFF323
:103850006F8F124A136843F0020013F001031060E7
:103860000CD04FF08042D2F80C34D2F80C2413F074
:10387000010303D00A4803F031FF012381F31188CB
:10388000BFF36F8F23B1BDE808400020FFF7B0BF42
:10389000BDE80840012001F001BB00BFB80D0020C9
:1038A000A80D0020094BBFF35B8F53E8002F22F0D7
:1038B000020143E800100028F7D1BFF35B8FD30764
:1038C00002D4012001F01CBB704700BFB80D0020DE
:1038D0007FB500220123CDE9022304ABCDE90433F7
:1038E000094ACDF800D06B46CDF804D003F02FFF85
:1038F000002805DB4FF480420023684602F016FBE7
:1039000007B05DF804FB00BF217700002DE9F84304
:103910003A49BFF35B8F0646012251E8003F41E878
:1039200000200028F9D1BFF35B8F33B93449354803
:103930004B60CB608A6003F017FD731E012B32D8F9
:10394000012E07D14FF08043D3F81C3403F003035A
:10395000012B28D004F020FB044618B92A4B1B7811
:10396000002B44D14FF02003EFF3118583F312882D
:10397000BFF36F8F0124254FDFF89480DFF8949018
:103980004FF08042D2F81834D2F81824D2030CD564
:1039900003F00303012B01D0012E06D10CB385F3F4
:1039A0001188BFF36F8FBDE8F883ACB12846FFF7ED
:1039B0009BF84FF08042D2F81835002BE0D13968DF
:1039C0000029DDD03B603B680123C2F81835C8F8F8
:1039D0008031C9F80030D3E70021212002F0BAFD80
:1039E000E7E74FF080430222C3F80423DBE74FF000
:1039F00080430222C3F808230546BCE7BC0D002023
:103A0000580D0020840D00204113002004010040C7
:103A100000E100E00800004008B5084B08481860C5
:103A200004F051FA38B10748FFF7CEFB0548FDF71F
:103A3000ABFE002008BD6FF01200FBE7C00D0020B8
:103A4000D0840000493A00000A2838B5074D0446E2
:103A500004D1286883680D21DB699847286883684A
:103A6000E1B2DB699847204638BD00BFC00D002099
:103A7000420970B5034602D0012A1DD070BD0F4E19
:103A8000326951680029F9D00C6803F01F03012541
:103A9000002C05FA03F538BF00248A682A4002D0BA
:103AA0004B6830469847002CE8D02368002B38BF7D
:103AB000002321461C46F0E7014EE1E78884000020
:103AC000A084000030B54068047B01F01F05B2F50A
:103AD000005F45EA441585B04FF0000404D1284644
:103AE00001F0AEFC002032E0B2F5804FCDE9024497
:103AF0002FD1B3F5003F0CBF042305238DF8083008
:103B0000836823FA01F1C9072FD4B2F5A03F2CD165
:103B10006A09012A05F01F031C4A03F5E07318BF68
:103B20004FF0A04252F82330DB071ED40DF10704FA
:103B30002146284601F0F0FB154B984214D120464F
:103B400001F034FC134B98420ED06FF00B0005B01F
:103B500030BDB3F5C02F05D0B3F5003F0CBF022335
:103B60000123CBE70323C9E703940023194602AAE4
:103B7000284601F0AFFA074B984204D101212846AC
:103B800001F01AFCAEE76FF00400E0E7000300501C
:103B90000400AD0B0000AD0B10B501F0F7FB0446BF
:103BA00068B901F0CBFB084B98420AD1074821467F
:103BB00001F0ACFB224605210620FEF7BDFF0020E8
:103BC00010BD6FF00400FBE70000AD0B713A000080
:103BD0002DE9F04347683B7B01F01F0585B00E4699
:103BE00045EA43151446CAB902A9284601F094FBD8
:103BF0000446284601F046FC484B984204D06FF03A
:103C0000040005B0BDE8F083844205D19DF80800AA
:103C100001F0C6FBA042F2D10020F2E74FF000090C
:103C20000DF103013046CDE9029901F075FB4B46D9
:103C3000804602AA4946284601F04CFA374B984282
:103C400002D06FF01500DCE7804503D19DF803003A
:103C500001F0A6FBA3054ED5314B324A23409342D7
:103C60003AD00CD8062B14D004D893B1022BE8D14B
:103C700004230EE0B3F5801FE3D1012309E02A4AB3
:103C800093422BD0B3F5A00F2AD0B3F5800FD8D133
:103C900002238DF8043084F48073C3F30023E0061C
:103CA0008DF8053054BFC4F34013032321058DF86C
:103CB000063017D57B68012101FA06F6C3F80865BE
:103CC000002201A9284601F0B1FA144B984214BF12
:103CD0006FF01500002094E70723DAE70523D8E703
:103CE0000323D6E7620541BF7B68012101FA06F68E
:103CF000C3F80C65E4E7E3064FF0000354BFC4F3D8
:103D0000401403241A4601A928468DF8044001F006
:103D1000E1F9024B98423FF47FAF92E70000AD0B10
:103D20000600F000060010000200400002480021DA
:103D3000C2E90001002070470024F40002464068F8
:103D4000126938B500F10803043200F10C04194679
:103D500013F9015B002DB4BF00254FF40045A342C9
:103D600022F8025BF4D100231A4601F08DFC034BCC
:103D7000984214BF6FF00F00002038BD0000AD0B5B
:103D80002DE9F0479DF8204046680F461546016929
:103D90009846002C3FD1F21D12F8013FFF2B03D0B3
:103DA00023F080039F4239D00134E4B2042CF3D1D4
:103DB0006FF0150009E0002040E00133082B4FEAC6
:103DC000520258D1F4E7C8B90020BDE8F087454554
:103DD00000F28680012F494B4FF0010218BF4FF0CF
:103DE000A0438240C3F80C25204603F01DFD0028A7
:103DF000EAD10146304604F048F8E5E7304601F0E4
:103E00002FFD0028FAD00223012206F118013046C6
:103E100001F0E8FCD8E76FF08500D6E701EB440934
:103E2000B9F804A0CAF30E0313B18A899A42C2D822
:103E3000204603F0F9FC80F00100C0B296F80EC0F5
:103E4000BCF1010F04BF6D084FEA580825B30B6899
:103E5000AB4221D0002301F1040EDAB2A24205D018
:103E60003EF81320C2F30E02002AA1D10133042B25
:103E7000F3D12A460023B2F5004F5FFA83FE9CD2AD
:103E800081F80EE0D6F800E00D608A81CEF80C359E
:103E9000CEF804C5CEF808258A7B45452B4628BFB9
:103EA000434623FA02F20AF4004A42EA0A0292B2B4
:103EB000A9F80420C2F30E021AB1B1F80CC094455F
:103EC00081D8321907F01F0092F908207F09002BD2
:103ED0003FF47DAF454506D8002AFFF67BAF02E0F0
:103EE000002ABFF677AF012F044B4FF0010218BF35
:103EF0004FF0A0438240C3F8082575E70003005047
:103F0000F0B54B79012B26D0032B21D110268B79CC
:103F1000032B1DD1CC790CB1012C19D10A7912B126
:103F2000022A15D10E220B684568B3F5164F2D688D
:103F300065D02DD8B3F5165F64D016D8B3F5966F5B
:103F400062D00AD8B3F5967F61D0B3F5167F61D001
:103F50006FF0850052E00026D9E7B3F5166F5CD00C
:103F6000B3F5965FF4D1374B3CE0B3F5E14F57D052
:103F700007D8B3F5615F55D0B3F5964FE8D1324B12
:103F800030E047F61227BB42E2D14FF4000329E0AC
:103F9000B3F5613F48D013D8B3F5963F47D009D861
:103FA0004DF6C027BB4244D0B3F5614FD0D14FF49A
:103FB0006B0317E0B3F5E13FCAD14FF0EB7311E0AB
:103FC000B3F5612F38D008D8204FBB4237D0B3F5B6
:103FD000E12FBDD14FF0E86304E01D4FBB42B7D1E4
:103FE0004FF08053C5F82435036903C93443224395
:103FF0000433C5F86C2583E803000020F0BD4FF4BE
:104000001D03EFE7134BEDE74FF49E23EAE74FF470
:10401000A033E7E74FF41C33E4E74FF41D23E1E757
:104020000D4BDFE70D4BDDE74FF06C73DAE70C4B20
:10403000D8E74FF46503D5E74FF07063D2E74FF050
:104040008063CFE700B0130000A04E0090D00300C3
:1040500040420F000050270000C0750000F03A00F9
:1040600000903A0100F01F0240090128044B02F5BC
:10407000E07218BF4FF0A043890043F82210704748
:104080000003005000F01F0240090128044B02F514
:10409000E07218BF4FF0A043032143F8221070478D
:1040A0000003005000F01F0140090128044B4FF0AD
:1040B000010218BF4FF0A0438A40C3F8082570479B
:1040C000000300502DE9F843D0F804800769D8F8C0
:1040D00000400023C4F80035386045680646E868AB
:1040E000421C04D0FFF7DEFFE868FFF7CBFF28692A
:1040F000431C06D02B7F002B14BF03210021FFF7A8
:10410000B1FF6869421C04D0FFF7CCFF6869FFF774
:10411000B9FFA869431C06D06B7F002B14BF032195
:104120000021FFF79FFFD5E903122B68C3F80C1598
:10413000C3F81425D5E90512C3F808153169C3F889
:10414000102504313046FFF7DBFE814600286FD191
:10415000D8F80430990719D507F1160001F08EFA46
:10416000404B98427BD1B87DC30003F1804303F5F7
:10417000F83304F10C0204F59071C3F81015C3F87C
:104180001425394A01238340C2F80435FB68002B0B
:1041900051D0736835691B68E86834490422C3F854
:1041A00004230122C0F8C820C3F804130821C3F86F
:1041B0000015D3F84C11A1B15A60D3F844211AB9B3
:1041C000D3F82421002AF8D00022C3F84C21D3F8D8
:1041D0004C11C3F81021D3F81011C3F84421D3F8BF
:1041E000443123490022883004F048F8EB68C3F8D2
:1041F000BC50E8681F490022283004F03FF8EB6803
:10420000DD65D8F804309A075CBF4FF48072C4F8BB
:104210000423DB0644BF4FF48003C4F8043314378F
:104220000023C4F84475C4F848350123A360E36053
:104230004846BDE8F8830823C4F8003598F80830EC
:10424000002BDED1C4F81031D4F8103107F115037A
:10425000C4F834350123C4F838352360D1E76FF052
:104260000409E5E70000AD0B00F0014010020A0070
:10427000BB790000997C0000F8B5066904460F463A
:1042800003F08AFE10B9284B1B785BBB4FF020036C
:10429000EFF3118183F31288BFF36F8F20460D4631
:1042A00003F0E6FAC8B1F3685BB1DA684AB1D3F853
:1042B000C420002A05DA62681268D2F84C25C3F8D7
:1042C000C4203146012201F8147F204603F009FD85
:1042D00085F31188BFF36F8FF8BD81F31188BFF3A9
:1042E0006F8FD3E76425204603F0C2FA48B9012056
:1042F00003F046FD013DF6D10021212002F02AF90C
:10430000F0E74FF02003EFF3118583F31288BFF33A
:104310006F8F204603F0ACFA0028D2D185F31188C4
:10432000BFF36F8FE8E700BF41130020F7B51C46CD
:1043300043680669D3F800C005464FF02003EFF349
:10434000118783F31288BFF36F8FF068C3683BB1A6
:1043500087F31188BFF36F8F6FF00F0003B0F0BDCC
:104360004FF4800EC2608160CCF804E301F0604C31
:10437000BCF1005F28D1C0E9041206F10C01284607
:1043800003F0D5FC87F31188BFF36F8FF37A012B0D
:1043900018D1631C16D00E48F5680E4A24EAE4745E
:1043A0004FF4004600210023C6FB0401FCF7E2FAAB
:1043B000283502460B4600200021CDE900012846A1
:1043C00002F018FB0020C9E7036203F01FFCD4E7EA
:1043D0003F420F0040420F0043682DE9F0431D6843
:1043E000D5F8081189B0044671B103690022C5F8F7
:1043F0000821D5F80821DA68D2F8C0300133C2F8B4
:10440000C03009B0BDE8F083D5F8243113B3C5F846
:104410002411D5F82431D5F88064C5F880641422BD
:1044200003A803F0D8F80623F0078DF80C3000F14C
:104430000481B10700F10381720700F1028106F0E7
:104440000806204603A98DF8106003F021FA2046E3
:1044500003F026FCD5F810317BB3D5F80433DB0626
:104460002BD54FF000082769C5F81081D5F8103119
:104470006368F8681E68012380F8D530883003F03F
:1044800009FFFA68D6F83C1592F8D130906E82F8A0
:10449000D1801B1A0B44906F23EAE3710844434513
:1044A000906702DD204603F0FAF9F96891F8D230FE
:1044B000002B40F0C88081F8D530D5F84C3193B34B
:1044C000D5F8101179BBC5F84C112669D5F84C31D7
:1044D000142203A803F07FF8032303A920468DF8D4
:1044E0000C3003F0D5F9F668F36F5F1C1BD0C6F8EB
:1044F0008430D6F88030DFF834828B4A23EAE371C7
:104500004FF400404FF00009C0FB018900234046F2
:104510004946FCF72FFA02460B46CDE9000106F1A9
:10452000880002F067FAD5F8443133B3D5F810614A
:104530001EBB2769C5F84461F968D5F844310122EA
:104540006031204603F0C4F9F96801226C3120463D
:1045500003F0BEF9FB6893F8D220002A00F0A18096
:1045600083F8D26063685B68D80603D502212046D1
:1045700003F026FB204603F0C5F9D5F82031DBB166
:10458000D5F80433D90517D563681B684FF02001AF
:10459000EFF3118281F31288BFF36F8FD3F82011EC
:1045A00031B10021C3F82011D3F820110121D960C5
:1045B00082F31188BFF36F8FD5F85831002B3FF489
:1045C00020AFD5F804335A027FF51BAF6368266924
:1045D000D3E90073DB0669D4F3689B68002B3FF4D2
:1045E00010AF4FF02003EFF3118283F31288BFF373
:1045F0006F8FF368D3F8C4100029ACBFD3F8C45050
:10460000D7F84C5582F31188BFF36F8FF06890F89C
:10461000D430002B57D04FF02003EFF3118583F3F4
:104620001288BFF36F8F06F10C01204603F07FFB69
:1046300085F31188BFF36F8FE3E6012601E70226B9
:10464000FFE60426FDE600226031204603F040F933
:104650004FF02003EFF3118183F31288BFF36F8FC4
:10466000FB68DA6ED2B11A661A6F5A660022C3E985
:104670001B229A66D6F84C310BB901233360D6F869
:10468000003223F02003C6F8003281F31188BFF313
:104690006F8FFB68002283F8D5200EE7012373603B
:1046A000F3E71146204603F056FA5BE74FF4800328
:1046B000C7F808330121204603F082FAF368DB686B
:1046C000002B89D19DE6826803699A420BD042692A
:1046D000036AAA422B4425D1036203F097FA00280B
:1046E00099D1F3681D6AF068283003F0D3FD1422D5
:1046F000002103A802F06FFFF3689A68CDE9042552
:10470000DA68AD1A18BF01254FF480028DF80C50FD
:10471000C7F8082300229A60DA6003A9204603F054
:10472000B7F86EE61D46DEE740420F003F420F003D
:10473000194970B5044622F07F460868C1E9002394
:10474000A6F50013101AB3F5400F4FF000050AD27A
:10475000124B19680A060B0A9219114943F100031A
:10476000C1E90023012502F07BF8A30003F1804397
:1047700003F58833D3F84025B2420BD11DB94FF46D
:104780000002C3F84025074B4FF4803000FA04F4D0
:10479000C3F8444370BD00BFC0050020F40D0020E5
:1047A000A80500200010014010B501238340114AE4
:1047B000BFF35B8FDC4352E8001F01EA040C42E8C0
:1047C00000CEBEF1000FF6D1BFF35B8F4FF4803205
:1047D00002FA00F002F1804202F58052C2F80803AA
:1047E000BFF35F8FBFF36F8F0B4214BF0120002018
:1047F00010BD00BFF00D00200123124ABFF35B8FF4
:10480000834052E8001F194342E8001CBCF1000F2E
:10481000F7D1BFF35B8F0C4A4FF480338340C2F86B
:1048200004330A4BBFF35B8F1B68BFF35B8F23FA24
:1048300000F0C30742BF064B4FF40032C3F800211B
:10484000704700BFF00D002000100140EC0D00206B
:1048500000E100E00D4B1B68190A1806BFF35F8FDB
:104860000B4BD3F80435C01841F10001B3F5801F9C
:104870000AD2084BD3E90023994208BF904203D2E1
:1048800010F1807041F10001704700BFF40D00206D
:1048900000100140A80500202DE9F04F85B0164614
:1048A0001F460546FFF780FF0190FFF7D3FFB9428F
:1048B00008BFB0427FD2B6EB000867EB01090023C6
:1048C0004FF080724B4508BF4245C0F08580444B95
:1048D00003EB0513D3E902239F4208BF964254D04D
:1048E0004FEA85094FF4803B09F1804905F15008F2
:1048F0000BFA05F209F588394FEA88081FFA88F89B
:104900000292384AD9F8400526F07F4308F18048E2
:1049100008F588381C469346D2F804A5A0EB0A0097
:1049200020F07F402AF07F410128C9F8401505D1C9
:104930000393132003F09EFC2A4A039B02990AF179
:10494000020CA4EB0C0020F07F40B0F5000F88BFF4
:1049500064460020C8F80000D8F80000CBF84413E3
:1049600024F07F40C9F84005DBF80405824506D0F5
:10497000201A023820F07F40B0F5000F19D8E41A51
:1049800024F07F44321947F10003154C290104EB50
:104990000510C0E902230E9A0F9B62504360002469
:1049A000019B13B12846FFF727FF204605B0BDE85D
:1049B000F08F2046B0E701230B4ABFF35B8FAB407B
:1049C00052E8001F194342E800100028F8D1BFF355
:1049D0005B8F32463B46D8E76FF01504E0E700BF37
:1049E000B005002000100140EC0D002073B5194BFC
:1049F000194D00244FF0FF304FF0FF31C5F8084546
:104A0000C3E902014FF48033C5F80433134B022687
:104A10004FF400320121C5F804631120C3F880214E
:104A20002246FEF789F81120FEF768F80C4A0123A8
:104A300013600C4A2B6013600B4B0C4A00930194DB
:104A400000232046FFF728FF3046FEF75FFF204691
:104A500002B070BDB00500200010014000E100E090
:104A600008100140F00D002031470000FFFF7F00DB
:104A70002DE9F743344CD4F804339A0709D5334B66
:104A80001A6832B100221A60314A1B681368013378
:104A900013604FF02003EFF3118283F31288BFF30A
:104AA0006F8FD4F80433DB0312D5BFF35B8F294B30
:104AB00053E8001F21F0010043E80006002EF7D163
:104AC000BFF35B8F244B002936D11968002933D1FD
:104AD000002382F31188BFF36F8F53B3FFF7BAFE41
:104AE00006464FF02003EFF3118083F31288BFF3E3
:104AF0006F8F1A4BD3E90289494508BF46454FF0ED
:104B000000021ED34FF0FF364FF0FF37D3E90015F8
:104B1000C3E902671A604FF48033C4F8483380F366
:104B20001188BFF36F8F21B1009542464B4600209C
:104B3000884703B0BDE8F083002119601B6801239A
:104B4000C7E71146EBE700BF001001400411014028
:104B5000F40D0020EC0D002040110140B0050020B4
:104B6000144B13B5B0F1FF3F08BF1846441E002C8C
:104B70001EDD9C42A8BF1C46FFF76CFE0E4B0F4982
:104B8000D3E90023801AB0F5000F28BF00240130BC
:104B9000044408480091844228BF044612194FF08B
:104BA0000000019043F10003FFF776FE02B010BD54
:104BB0000024E1E7FFFF7F00C0050020314700002F
:104BC00008B5FFF747FE024B1B68C01A08BD00BFBF
:104BD000C0050020034B1868A0F108035842584153
:104BE000704700BF30010010064B1B68082B06D130
:104BF000054B1B68052B02D8044AD05C7047002087
:104C0000704700BF3001001034010010978D000084
:104C1000024AD2F80034002BFBD0704700E001407C
:104C200010B5FFF7D7FF40B14FF080430022C3F823
:104C30000C21C3F81021C3F83825FFF7CBFF00285B
:104C400046D04FF080525B4BD2F80414C3F82015C5
:104C5000D2F80814C3F82415D2F80C14C3F8281598
:104C6000D2F81014C3F82C15D2F81414C3F8301568
:104C7000D2F81814C3F83415D2F81C14C3F8401530
:104C8000D2F82014C3F84415D2F82414C3F84815F8
:104C9000D2F82814C3F84C15D2F82C14C3F85015C8
:104CA000D2F83014C3F85415D2F83414C3F8601590
:104CB000D2F83814C3F86415D2F83C14C3F8681558
:104CC000D2F84014C3F86C15D2F84424C3F8702508
:104CD000FFF78AFF10B1384B384A1A60FFF784FF9C
:104CE00018B1374BFB22C3F81825FFF77DFF48B1F9
:104CF0003449354B0A681B6822F00F0203F00F039A
:104D000013430B60FFF770FF18B1304B4FF4007284
:104D10001A60FFF75FFF48B14FF08043D3F80024DB
:104D2000D20744BF6FF00102C3F80024284B1B6870
:104D3000082B0ED1274B1B68052B02D8264AD35CC3
:104D40003BB14FF01023D3F808224FF08043C3F853
:104D500058254FF01023D3F80022002A03DBD3F8A4
:104D60000432002B22DA1D490123C1F80435FFF774
:104D70004FFF4FF010201224C0F80042FFF748FF09
:104D8000C0F80442FFF744FF0023C1F80435FFF7E1
:104D90003FFFBFF34F8F1249124BCA6802F4E06223
:104DA0001343CB60BFF34F8F00BFFDE70E4B0F4A9D
:104DB0001A6010BD00C000408C56004048810300BE
:104DC00000F00040E40E00405802001040960240FF
:104DD0003001001034010010918D000000E001400E
:104DE00000ED00E00400FA051C0100200090D00353
:104DF00070B501250368B3FA83F2202AC2F11F04BB
:104E000014D0BFF35B8F05FA04F223EA020250E8E4
:104E1000006F9E4204D140E8002CBCF1000FF6D197
:104E2000BFF35B8FE6D102480C7070BD0148FCE710
:104E30000000AD0B0200AD0B0368CB40DB0710B5E3
:104E400015D4012303FA01F10368BFF35B8F41EA34
:104E5000030250E8004F9C4204D140E8002CBCF112
:104E6000000FF6D1BFF35B8FEED1024810BD0248B0
:104E7000FCE700BF0000AD0B0400AD0B044B1A793A
:104E800022B9012218609A80024870470248704790
:104E9000F80D00200000AD0B0C00AD0B10B1012887
:104EA00020D070474FF08043D3F81824D3F818145B
:104EB00011F4803F194611D002F00302012A0DD1EE
:104EC000C3F818250C4B00221A601B684FF0804372
:104ED0000222C3F8042301229A6070470023C1F81C
:104EE0001835EFE7054B00221A601B684FF080432E
:104EF000C3F804031860704704010040000100403B
:104F000038B510B1012818D038BD4FF080430222C7
:104F1000C3F80823184A10601268184A012111606A
:104F200042F210751C46D4F81834DB03ECD501208E
:104F300002F026FF013DF6D1E6E7114B4FF0804429
:104F40000022C4F808031A601B680E4B42F2107569
:104F50001860D4F80C34D4F80C24D20303F0010305
:104F600005D523B1012002F00BFF013DF1D1064B25
:104F700000225A71C8E700BF040100400C00004045
:104F80000001004004000040F80D0020164B1A6894
:104F900010B56AB100221A601B684FF080430122ED
:104FA000C3F80823114B587910B95A711B689847F8
:104FB0000F4B1A6872B100221A601B684FF08043D1
:104FC000D3F81824D3F81814920704D10122C3F897
:104FD00018259A6010BD0222C3F80823034BBDE8D0
:104FE00010401B680120184700010040F80D002008
:104FF00004010040036803F01F025B09012B0260FB
:10500000024818BF4FF0A040704700BF0003005097
:1050100070B500F108030C4C34F81330DA0505467E
:105020000E4607D5C3F3432304EBC30254F83330D1
:1050300052689847A3682BB1E26831462846BDE81C
:105040007040184770BD00BF20010020124B08308F
:1050500010B433F81020D1051BD5C2F3432122F43C
:10506000F85223F8102003F11004002034F8022B2A
:1050700012F4807F03D0C2F34322914209D0013061
:105080003028F3D1002243F83120044810BCFFF748
:10509000D3BE10BC704700BF200100209401002047
:1050A00038B50A4C00F1080534F815309A0606D5D3
:1050B0005B0B074A03F5A273002142F82310FFF7A8
:1050C000C5FF002324F8153038BD00BF20010020A3
:1050D000006000402DE9FF411D46044617460B467F
:1050E00009B34D4E00F1080836F8182002F02202EC
:1050F000222A03D1494804B0BDE8F0810022CDE95D
:1051000000228DF80E208DF80F200DF10E010DF10B
:105110000F0202F041FE36F8183023F0020343F08C
:10512000010326F8183097B13B483E787A6804F1BD
:10513000080330F813108F070CD5002ADAD130F8A5
:10514000132022F01C0242EA860220F81320CDBB75
:105150003348D0E721F02001C904C90C20F813100E
:10516000002AECD0032EC5D817782EB92D4A07F5A2
:10517000A27142F82160E2E7BA0002F1804202F532
:10518000C0424FEA042ED2F810C52CF0030CC2F82E
:1051900010C5D2F810C52CF44F3C2CF4407CC2F85A
:1051A00010C5D2F810C50EF47C5E4CEA064C41EAFC
:1051B00047314CEA0E0C41F0200120F81310C2F8E0
:1051C00010C5BCE7D5E900672046FFF73FFF002E7A
:1051D000BED0114D2B689E4204D16B689F4201D115
:1051E000002209E010480DF10F01FFF701FE0C4B02
:1051F000984280D19DF80F2045F8326005EBC2033C
:1052000008345F6035F8143043EA422343F4807376
:1052100025F814309CE700BF200100200400AD0BEE
:105220000000AD0B0060004094010020F0B5044682
:1052300085B0154609B300F10807314E36F817302E
:10524000980701D49A0658D413F01C0F02D04B785B
:10525000012B52D001238DF80F300023CDE900132C
:105260004A1C8B1C20460DF10F0102F095FD36F80B
:10527000173043F0030326F8173015B9214805B05D
:10528000F0BD1F4E04F1080736F81700830734D528
:1052900095F800C06146890020F0200001F18041AE
:1052A000C00401F5C041C00C26F817000023C1F866
:1052B00010356A78002AE1D0D1F81035AD7823F4A2
:1052C000991323F4F853C1F81035D1F810E52302EF
:1052D00003F47C53120443EA0E0302F440322D051A
:1052E000134305F4801540EA4C302B4340F0200076
:1052F00026F81700C1F81035C0E70348BFE700BF24
:10530000200100200000AD0B0400AD0B014BC3E9F0
:1053100002017047200100200830054B33F810309F
:105320009A0643BF5B0B03480B700348704700BFEE
:10533000200100200000AD0B0400AD0B38B50E4C71
:1053400094F87850B5B96022294604F1100002F0B3
:1053500042F90620FDF7D2FB084B09481D601B6887
:10536000084B4FF00042C3F80423012384F878303F
:10537000636738BD0448FCE7200100207C610040E1
:105380000000AD0B006000400500AD0B034B93F82F
:105390007800003818BF0120704700BF20010020AE
:1053A00001460148FFF748BD900100200146014831
:1053B000FFF71EBD9001002037B51F4B00F108021A
:1053C000044633F812309A061DD513F002051AD19F
:1053D0005B0B9A0002F1804000F5C24002F180426E
:1053E00002F5C04205600068D2F8100540F00100E7
:1053F000C2F8100529B1012202FA03F30F4AC2F8DC
:10540000043303B030BDC3F38203042B10D0052B4B
:1054100010D001A80194FFF7EDFD019BD0F8101505
:10542000D94001F001010231204602F0FCFCE8E71E
:105430000321F9E70221F7E7200100200060004086
:105440000E4B00F1080233F81230990613D59A0773
:1054500011D45B0B01229A409B00094903F1804360
:1054600003F5C043C1F80823D3F8102522F0030246
:10547000C3F810257047002102F0D5BC20010020A0
:10548000006000400E4B00F1080213B513F8123013
:10549000DB07044611D5FFF7D3FF2046FFF700FED8
:1054A00001A80194FFF7A6FD019B03F5E07302221A
:1054B00040F82320034802B010BD0348FBE700BFBB
:1054C000200100200000AD0B0400AD0B2DE9F04FD2
:1054D000644B65486549002587B001222C461E684B
:1054E00036B1D0F8046316421EBF1C601E68154317
:1054F00004338B424FEA4202F1D15D4F3B687BB3EC
:105500004FF0A0435B4ED3F820250492C3F820252A
:10551000D6F820350593C6F8203500960DF1100910
:105520004FF000084FF0010BD9F80030F3B908F143
:105530002008B8F1400F09F10409F5D13B603B6840
:1055400000994FF0A043D3F820250492C3F82025FA
:10555000009BD3F820350593C1F820351343DDD1E6
:105560000124002D66D107B0BDE8F08F93FAA3F3B4
:10557000B3FA83F308EB030606F108023E4B0396E9
:1055800033F81220C2F38203F40801939A4604AB65
:1055900006F007000BFA00FC185D20EA0C00185515
:1055A00003A89108FFF726FD039C04F5E0744B0760
:1055B00050F82440C4F3014423D551463046FFF748
:1055C00027FD03A80396FFF715FD039A02F5E07285
:1055D000E4B250F82220C2F30142944207D10021E4
:1055E000304602F020FC2146304602F01CFC03A8A5
:1055F0000396FFF7FFFC039B0BFA03F3C0F820357B
:1056000092E7022C0CBF03210221304602F00BFC72
:10561000019B032B04D0022C07D1BAF1010FE6D174
:1056200051463046FFF7F4FCE1E7032CDFD1BAF135
:10563000020FF4E795FAA5F3B3FA83F304FA03F241
:105640009B0003F1804303F5C04325EA0205D3F82C
:105650001005D3F81015C0F30520C1F30141FFF781
:10566000D7FC7EE700610040006000402061004000
:105670007C610040000300502001002001460148E9
:10568000FFF7B6BB9C0100202DE9F04F0579514F83
:105690000C246C433E1989B096F808C00292B846B3
:1056A000BCF1000F40F0938091F80CC073604B7B0D
:1056B0003A5186F80AC00193BCF1000F31D083B390
:1056C00000680123C0F800358C790B894E79C0F849
:1056D0000C65C0F80445C0F808354B89C0F8103592
:1056E0000023C0F80032C0F80033C0F81C31D0F8F5
:1056F0001C11C0F81031D0F81011C0F81431D0F8D6
:105700001411C0F80431D0F80431029B002B59D198
:105710000C2303FB0585304801232B7209B0BDE83B
:10572000F08FCB1CDFF8B8E003934F1E04AE4FF0B0
:10573000010917F801AFBAF1FF0F3FD02AF080033B
:105740003360BCF1000F19D11AF0800F0AF01F046A
:105750004FEA531328D1012B14BF4FF0A04AF24651
:1057600009FA04FBCAF80CB5012B14BF4FF0A04393
:10577000734604F5E074032243F82420039B9F4200
:1057800006F10406D5D1019B002B99D10368049C36
:10579000C3F86045059CC3F86445069CC3F868459A
:1057A000079CC3F86C458BE7012B14BF4FF0A04A50
:1057B000F24609FA04FBCAF808B5D5E74FF0FF3303
:1057C0003360DBE740F30730FDF798F9A0E70348C3
:1057D000A4E700BF000E00200000AD0B0500AD0BDC
:1057E00000030050F0B40D4601790068D5F800C000
:1057F000AF88AE68C0F820C51C46184BC0F82475A9
:1058000001EB410103EB8101EB68C0F82865C0F8AA
:105810002C35C0F840C5C0F84475C0F84865C0F8DC
:105820004C3502F0010303EB5202C0F81425E207E5
:1058300011D414F0020203D0002B14BF082204225A
:10584000002BC0F8002218BF0C23E2B208BF0823C7
:10585000F0BC02F0F7BA1022F2E700BF000E002001
:10586000084B02790C2101FB02320168137AD1F84E
:105870000411DBB219B9981E18BF0120704701202E
:1058800010727047000E002010B5144C144A1549D0
:10589000032323616361144BA261E3614FF48063CE
:1058A00023620023A3626362E36222660F4A626698
:1058B000E01D1022A2662367E366636701F05AFECB
:1058C000BFF35F8F0A49204601F054FEBFF35F8F9C
:1058D0002023A371BFF35F8F10BD00BF0C0E00200B
:1058E0009D8D0000A68D0000410F0020310F00208B
:1058F000AA8D00000E4B70B553F82040013053F8CC
:105900002060A64200D870BDD4E9003528469847EB
:1059100065B1EB6830B10028B8BF4042FF28A8BF8E
:10592000FF2018705A7842F001025A700834E8E7F4
:105930006C88000070B5054610B90024204670BD83
:105940000378002BF9D00F4A0F4C1646944208D129
:105950000D4CB442F1D0204602F0B5FA50B91834DB
:10596000F7E7204602F0AFFA10B12368AB42E5D06A
:105970001834EBE72168284601F016FE0028EED126
:10598000DCE700BF188500007084000030B50023FC
:1059900087B00122CDE904230F22CDE902320D4C5C
:1059A0000D4A01930D49182304EBC01403FB002397
:1059B0004FF4B075009305FB0011094B4FF4A07232
:1059C000204600F0F7F8637B23F00403637307B00D
:1059D00030BD00BFC8050020B40E00208025002087
:1059E0002D5D000008B50A4B012202201A70FFF756
:1059F00081FF01F087F80320FFF77CFF00F038F902
:105A0000FBF74CF9034A137B23F00103137308BD22
:105A100041130020480600200248034A0021121AC0
:105A200001F0D9BD780200200015002080B5DFF814
:105A3000D880A6B088F308882D4D2E4E6B69DFF80C
:105A4000CC9043F4007300246B61E02385F822308E
:105A5000EC772C766C76AC7685F820406B6A43F454
:105A6000E0236B6285F82340FDF756FAFDF728F82E
:105A70004FF0FF33AB62EB62FDF778FBFDF7E8FA1E
:105A800040F20113ADF8243006ABB360CDE92044F9
:105A900002F018FA2046FFF72DFF0120164DFFF700
:105AA00029FF00F0BDFC154B059301231449009418
:105AB000CDE903434FF480624B46CDE901442846CB
:105AC000F56100F077F86A7B22F004026A730746FA
:105AD000284602F0E0FA2046FFF758FF094BF36032
