:10000000C0240020A53300005FB300005D33000072
:100010005D3300005D3300005D3300000000000030
:10002000000000000000000000000000252F00007C
:100030005D33000000000000CD2E00005D330000A5
:1000400011300000113000001130000011300000AC
:10005000113000001130000011300000113000009C
:10006000113000001130000011300000113000008C
:10007000113000001130000011300000113000007C
:10008000113000001130000011300000113000006C
:10009000113000001130000011300000113000005C
:1000A000113000001130000011300000113000004C
:1000B000113000001130000011300000113000003C
:1000C000113000001130000011300000113000002C
:1000D000113000001130000011300000113000001C
:1000E000113000001130000011300000113000000C
:1000F00011300000113000001130000011300000FC
:1001000081F0004102E000BF83F0004330B54FEAC8
:1001100041044FEA430594EA050F08BF90EA020F35
:100120001FBF54EA000C55EA020C7FEA645C7FEAC8
:10013000655C00F0E2804FEA5454D4EB5555B8BFEB
:100140006D420CDD2C4480EA020281EA030382EA5C
:10015000000083EA010180EA020281EA0303362DEE
:1001600088BF30BD11F0004F4FEA01314FF4801CC1
:100170004CEA113102D0404261EB410113F0004FD3
:100180004FEA03334CEA133302D0524263EB43038A
:1001900094EA050F00F0A780A4F10104D5F1200E28
:1001A0000DDB02FA0EFC22FA05F2801841F1000183
:1001B00003FA0EF2801843FA05F359410EE0A5F157
:1001C00020050EF1200E012A03FA0EFC28BF4CF088
:1001D000020C43FA05F3C01851EBE37101F000453E
:1001E00007D54FF0000EDCF1000C7EEB00006EEB4B
:1001F0000101B1F5801F1BD3B1F5001F0CD34908D5
:100200005FEA30004FEA3C0C04F101044FEA44522B
:1002100012F5800F80F09A80BCF1004F08BF5FEAB2
:10022000500C50F1000041EB045141EA050130BD92
:100230005FEA4C0C404141EB0101013C28BFB1F5A4
:10024000801FE9D291F0000F04BF01460020B1FAEF
:1002500081F308BF2033A3F10B03B3F120020CDAC2
:100260000C3208DD02F1140CC2F10C0201FA0CF0A0
:1002700021FA02F10CE002F11402D8BFC2F1200C05
:1002800001FA02F120FA0CFCDCBF41EA0C019040BB
:10029000E41AA2BF01EB0451294330BD6FEA040404
:1002A0001F3C1CDA0C340EDC04F11404C4F12002EF
:1002B00020FA04F001FA02F340EA030021FA04F301
:1002C00045EA030130BDC4F10C04C4F1200220FA58
:1002D00002F001FA04F340EA0300294630BD21FA96
:1002E00004F0294630BD94F0000F83F4801306BF5C
:1002F00081F480110134013D4EE77FEA645C18BF50
:100300007FEA655C29D094EA050F08BF90EA020FE6
:1003100005D054EA000C04BF1946104630BD91EADE
:10032000030F1EBF0021002030BD5FEA545C05D1E1
:100330004000494128BF41F0004130BD14F5800420
:100340003CBF01F5801130BD01F0004545F0FE4194
:1003500041F470014FF0000030BD7FEA645C1ABFC9
:10036000194610467FEA655C1CBF0B46024650EA00
:10037000013406BF52EA033591EA030F41F400212C
:1003800030BD00BF90F0000F04BF0021704730B5B2
:100390004FF4806404F132044FF000054FF0000187
:1003A00050E700BF90F0000F04BF0021704730B548
:1003B0004FF4806404F1320410F0004548BF40421D
:1003C0004FF000013EE700BF42004FEAE2014FEA72
:1003D00031014FEA02701FBF12F07F4393F07F4F4D
:1003E00081F06051704732F07F4208BF704793F050
:1003F0007F4F04BF41F40021704730B54FF4607463
:1004000001F0004521F000411CE700BF50EA010265
:1004100008BF704730B54FF000050AE050EA01020E
:1004200008BF704730B511F0004502D5404261EB7E
:1004300041014FF4806404F132045FEA915C3FF4BF
:10044000D8AE4FF003025FEADC0C18BF03325FEA5C
:10045000DC0C18BF033202EBDC02C2F1200300FA0D
:1004600003FC20FA02F001FA03FE40EA0E0021FA32
:1004700002F11444BDE600BF70B54FF0FF0C4CF420
:10048000E06C1CEA11541DBF1CEA135594EA0C0FD2
:1004900095EA0C0F00F0DEF82C4481EA030621EA0D
:1004A0004C5123EA4C5350EA013518BF52EA033548
:1004B00041F4801143F4801338D0A0FB02CE4FF0FA
:1004C0000005E1FB02E506F00042E0FB03E54FF02A
:1004D0000006E1FB03569CF0000F18BF4EF0010E22
:1004E000A4F1FF04B6F5007F64F5407404D25FEA1E
:1004F0004E0E6D4146EB060642EAC62141EA5551D1
:100500004FEAC52040EA5E504FEACE2EB4F1FD0C12
:1005100088BFBCF5E06F1ED8BEF1004F08BF5FEA90
:10052000500E50F1000041EB045170BD06F0004642
:1005300046EA010140EA020081EA0301B4EB5C04EF
:10054000C2BFD4EB0C0541EA045170BD41F48011E7
:100550004FF0000E013C00F3AB8014F1360FDEBF0C
:10056000002001F0004170BDC4F10004203C35DAE8
:100570000C341BDC04F11404C4F1200500FA05F36B
:1005800020FA04F001FA05F240EA020001F000420C
:1005900021F0004110EBD37021FA04F642EB060182
:1005A0005EEA430E08BF20EAD37070BDC4F10C04AC
:1005B000C4F1200500FA04F320FA05F001FA04F270
:1005C00040EA020001F0004110EBD37041F100015C
:1005D0005EEA430E08BF20EAD37070BDC4F1200567
:1005E00000FA05F24EEA020E20FA04F301FA05F2CF
:1005F00043EA020321FA04F001F0004121FA04F277
:1006000020EA020000EBD3705EEA430E08BF20EA46
:10061000D37070BD94F0000F0FD101F00046400080
:1006200041EB010111F4801F08BF013CF7D041EA02
:10063000060195F0000F18BF704703F00046520006
:1006400043EB030313F4801F08BF013DF7D043EAD7
:100650000603704794EA0C0F0CEA135518BF95EA8D
:100660000C0F0CD050EA410618BF52EA4306D1D114
:1006700081EA030101F000414FF0000070BD50EA33
:10068000410606BF1046194652EA430619D094EABD
:100690000C0F02D150EA013613D195EA0C0F05D1A7
:1006A00052EA03361CBF104619460AD181EA0301FB
:1006B00001F0004141F0FE4141F470014FF00000B3
:1006C00070BD41F0FE4141F4780170BD70B54FF04E
:1006D000FF0C4CF4E06C1CEA11541DBF1CEA1355CE
:1006E00094EA0C0F95EA0C0F00F0A7F8A4EB0504B0
:1006F00081EA030E52EA03354FEA013100F08880A7
:100700004FEA03334FF0805545EA131343EA12636F
:100710004FEA022245EA111545EA10654FEA002624
:100720000EF000419D4208BF964244F1FD0404F5DD
:10073000407402D25B084FEA3202B61A65EB030539
:100740005B084FEA32024FF480104FF4002CB6EBF6
:10075000020E75EB030E22BFB61A754640EA0C0076
:100760005B084FEA3202B6EB020E75EB030E22BFB6
:10077000B61A754640EA5C005B084FEA3202B6EBF7
:10078000020E75EB030E22BFB61A754640EA9C00B6
:100790005B084FEA3202B6EB020E75EB030E22BF86
:1007A000B61A754640EADC0055EA060E18D04FEA44
:1007B000051545EA16754FEA06164FEAC30343EAE4
:1007C00052734FEAC2025FEA1C1CC0D111F4801FB1
:1007D0000BD141EA00014FF000004FF0004CB6E7AA
:1007E00011F4801F04BF01430020B4F1FD0C88BF49
:1007F000BCF5E06F3FF6AFAEB5EB030C04BFB6EB54
:10080000020C5FEA500C50F1000041EB045170BD46
:100810000EF0004E4EEA113114EB5C04C2BFD4EB73
:100820000C0541EA045170BD41F480114FF0000EF7
:10083000013C90E645EA060E8DE60CEA135594EA73
:100840000C0F08BF95EA0C0F3FF43BAF94EA0C0F76
:100850000AD150EA01347FF434AF95EA0C0F7FF4EB
:1008600025AF104619462CE795EA0C0F06D152EA3F
:1008700003353FF4FDAE1046194622E750EA410623
:1008800018BF52EA43067FF4C5AE50EA41047FF434
:100890000DAF52EA43057FF4EBAE12E74FEA410297
:1008A000B2F1E04324BFB3F5001CDCF1FE5C0DD9CE
:1008B00001F0004C4FEAC0024CEA5070B2F1004F18
:1008C00040EB830008BF20F00100704711F0804F1B
:1008D00021D113F13872BCBF01F00040704741F4E0
:1008E00080114FEA5252C2F11802C2F1200C10FAE4
:1008F0000CF320FA02F018BF40F001004FEAC123C8
:100900004FEAD32303FA0CFC40EA0C0023FA02F36B
:100910004FEA4303CCE77FEA625307D150EA013341
:100920001EBF4FF0FE4040F44000704701F0004011
:1009300040F0FE4040F40000704700BF80F00040EF
:1009400002E000BF81F0004142001FBF5FEA4103A7
:1009500092EA030F7FEA226C7FEA236C6AD04FEAA7
:100960001262D2EB1363C1BFD218414048404140EC
:10097000B8BF5B42192B88BF704710F0004F40F49E
:10098000000020F07F4018BF404211F0004F41F4BA
:10099000000121F07F4118BF494292EA030F3FD086
:1009A000A2F1010241FA03FC10EB0C00C3F1200399
:1009B00001FA03F100F0004302D5494260EB400028
:1009C000B0F5000F13D3B0F1807F06D340084FEA93
:1009D000310102F10102FE2A51D2B1F1004F40EB88
:1009E000C25008BF20F0010040EA030070474900F0
:1009F00040EB0000013A28BFB0F5000FEDD2B0FA8D
:100A000080FCACF1080CB2EB0C0200FA0CF0AABFAF
:100A100000EBC25052421843BCBFD040184370474D
:100A200092F0000F81F4000106BF80F40000013253
:100A3000013BB5E74FEA41037FEA226C18BF7FEA2A
:100A4000236C21D092EA030F04D092F0000F08BF6C
:100A50000846704790EA010F1CBF0020704712F053
:100A60007F4F04D1400028BF40F00040704712F192
:100A700000723CBF00F50000704700F0004343F0F7
:100A8000FE4040F4000070477FEA226216BF08462D
:100A90007FEA23630146420206BF5FEA412390EAF0
:100AA000010F40F4800070474FF0000304E000BFE6
:100AB00010F0004348BF40425FEA000C08BF704797
:100AC00043F0964301464FF000001CE050EA01025B
:100AD00008BF70474FF000030AE000BF50EA010270
:100AE00008BF704711F0004302D5404261EB41015D
:100AF0005FEA010C02BF84460146002043F0B64382
:100B000008BFA3F18053A3F50003BCFA8CF2083AA6
:100B1000A3EBC25310DB01FA02FC634400FA02FCAF
:100B2000C2F12002BCF1004F20FA02F243EB0200B6
:100B300008BF20F00100704702F1200201FA02FC18
:100B4000C2F1200250EA4C0021FA02F243EB02000B
:100B500008BF20EADC7070474FF0FF0C1CEAD0524F
:100B60001EBF1CEAD15392EA0C0F93EA0C0F6FD010
:100B70001A4480EA010C400218BF5FEA41211ED0EE
:100B80004FF0006343EA501043EA5111A0FB0131DA
:100B90000CF00040B1F5000F3EBF490041EAD371AF
:100BA0005B0040EA010062F17F02FD2A1DD8B3F12B
:100BB000004F40EBC25008BF20F00100704790F09A
:100BC000000F0CF0004C08BF49024CEA502040EAEC
:100BD00051207F3AC2BFD2F1FF0340EAC2507047B2
:100BE00040F400004FF00003013A5DDC12F1190FF0
:100BF000DCBF00F000407047C2F10002410021FA62
:100C000002F1C2F1200200FA02FC5FEA310040F179
:100C1000000053EA4C0308BF20EADC70704792F0F2
:100C2000000F00F0004C02BF400010F4000F013A2A
:100C3000F9D040EA0C0093F0000F01F0004C02BF25
:100C4000490011F4000F013BF9D041EA0C018FE794
:100C50000CEAD15392EA0C0F18BF93EA0C0F0AD09A
:100C600030F0004C18BF31F0004CD8D180EA0100C0
:100C700000F00040704790F0000F17BF90F0004F59
:100C8000084691F0000F91F0004F14D092EA0C0F3B
:100C900001D142020FD193EA0C0F03D14B0218BFCE
:100CA000084608D180EA010000F0004040F0FE4014
:100CB00040F40000704740F0FE4040F440007047B0
:100CC0004FF0FF0C1CEAD0521EBF1CEAD15392EA2F
:100CD0000C0F93EA0C0F69D0A2EB030280EA010C1F
:100CE00049024FEA402037D04FF0805343EA1111B8
:100CF00043EA10130CF000408B4238BF5B0042F116
:100D00007D024FF4000C8B4224BF5B1A40EA0C00BA
:100D1000B3EB510F24BFA3EB510340EA5C00B3EBEC
:100D2000910F24BFA3EB910340EA9C00B3EBD10FDA
:100D300024BFA3EBD10340EADC001B0118BF5FEA2C
:100D40001C1CE0D1FD2A3FF650AF8B4240EBC25055
:100D500008BF20F0010070470CF0004C4CEA502016
:100D60007F32C2BFD2F1FF0340EAC250704740F465
:100D700000004FF00003013A37E792F0000F00F057
:100D8000004C02BF400010F4000F013AF9D040EAD5
:100D90000C0093F0000F01F0004C02BF490011F469
:100DA000000F013BF9D041EA0C0195E70CEAD15361
:100DB00092EA0C0F08D142027FF47DAF93EA0C0F48
:100DC0007FF470AF084676E793EA0C0F04D14B022C
:100DD0003FF44CAF08466EE730F0004C18BF31F0DE
:100DE000004CCAD130F000427FF45CAF31F00043D8
:100DF0007FF43CAF5FE700BF4FF0FF3C06E000BF71
:100E00004FF0010C02E000BF4FF0010C4DF804CD93
:100E10004FEA40024FEA41037FEA226C18BF7FEAA3
:100E2000236C11D001B052EA530C18BF90EA010FA5
:100E300058BFB2EB030088BFC81738BF6FEAE17034
:100E400018BF40F0010070477FEA226C02D15FEAD0
:100E5000402C05D17FEA236CE4D15FEA412CE1D03C
:100E60005DF8040B704700BF844608466146FFE703
:100E70000FB5FFF7C9FF002848BF10F1000F0FBDE5
:100E80004DF808EDFFF7F4FF0CBF012000205DF8DE
:100E900008FB00BF4DF808EDFFF7EAFF34BF012063
:100EA00000205DF808FB00BF4DF808EDFFF7E0FFFC
:100EB00094BF012000205DF808FB00BF4DF808ED4D
:100EC000FFF7D2FF94BF012000205DF808FB00BFB0
:100ED0004DF808EDFFF7C8FF34BF012000205DF892
:100EE00008FB00BF4FEA4002B2F1FE4F0FD34FF0B4
:100EF0009E03B3EB12620DD94FEA002343F0004387
:100F000010F0004F23FA02F018BF404270474FF034
:100F10000000704712F1610F01D1420205D110F0BB
:100F2000004008BF6FF0004070474FF0000070476E
:100F300042000ED2B2F1FE4F0BD34FF09E03B3EB43
:100F4000126209D44FEA002343F0004323FA02F06F
:100F500070474FF00000704712F1610F01D142025B
:100F600002D14FF0FF3070474FF00000704700BFD4
:100F700053B94AB9002908BF00281CBF4FF0FF3100
:100F80004FF0FF3000F06CB9ADF1080C6DE904CE04
:100F900000F006F8DDF804E0DDE9022304B0704754
:100FA0002DE9F047089E0D4604468E46002B40F082
:100FB00082808A42174646D9B2FA82F24AB1C2F119
:100FC000200105FA02F320FA01F1974041EA030EED
:100FD00094404FEA1748230CBEFBF8FCB9B208FB5B
:100FE0001CEE43EA0E430CFB01F098420AD9FB18B1
:100FF0000CF1FF3580F01681984240F21381ACF17C
:10100000020C3B441B1AA4B2B3FBF8F008FB1033EC
:1010100044EA034400FB01F1A14209D93C1900F163
:10102000FF3380F00181A14240F2FE8002383C444F
:10103000641A40EA0C4000211EB1D4400023C6E9E6
:101040000043BDE8F08702B9FFDEB2FA82F2002A5F
:101050004FD1CB1B4FEA174E1FFA87F80121B3FB84
:10106000FEFC250C0EFB1C3345EA034508FB0CF384
:10107000AB4207D97D190CF1FF3002D2AB4200F22E
:10108000E7808446ED1AA3B2B5FBFEF00EFB1055C7
:1010900043EA054408FB00F8A04507D93C1900F1D4
:1010A000FF3302D2A04500F2D7801846A4EB080413
:1010B00040EA0C40C0E78B4208D9002E00F0AF8018
:1010C0000021C6E900050846BDE8F087B3FA83F1C0
:1010D00000294BD1AB4202D3824200F2B780841A7E
:1010E00065EB030301209E46002EAAD0C6E9004E00
:1010F000A7E7C2F1200C01FA02F3974020FA0CF0A6
:101100004FEA174E21FA0CFC1843BCFBFEF1050C0C
:101110000EFB11CC1FFA87F845EA0C4501FB08F3DA
:10112000AB4204FA02F409D97D1901F1FF3C80F0C9
:101130008B80AB4240F2888002393D44EB1A85B285
:10114000B3FBFEF00EFB103345EA034500FB08F34A
:10115000AB4207D97D1900F1FF3C71D2AB426FD988
:1011600002383D44EB1A40EA014178E7C1F1200C16
:101170008B4022FA0CF71F4320FA0CF405FA01F316
:101180004FEA174E25FA0CF51C43230CB5FBFEF96C
:101190001FFA87F80EFB195543EA054509FB08FAC3
:1011A000AA4502FA01F200FA01F308D97D1909F102
:1011B000FF3047D2AA4545D9A9F102093D44A5EB24
:1011C0000A05A4B2B5FBFEF00EFB105544EA054437
:1011D00000FB08F8A04507D93C1900F1FF352DD2D6
:1011E000A0452BD902383C4440EA0940A4EB08044E
:1011F000A0FB02894C45C6464D4619D316D05EB1B8
:10120000B3EB0E0264EB050404FA0CFCCA404CEA92
:101210000202CC40C6E900240021BDE8F087314637
:1012200030460EE7AC46EDE6184601E74345E6D208
:10123000B8EB020E69EB07050138E0E72846D3E773
:1012400060468FE78146BAE7614677E708464BE795
:10125000ACF1020C3D4415E702383C4426E700BFE0
:10126000704700BF000000002DE9F04745E0324B19
:10127000A3FB0030C008FFF785F804460D462AA3FB
:10128000D3E90023FFF7F8F8FFF708FB804628A30F
:10129000D3E9002320462946FFF7EEF8FFF7FEFAD0
:1012A00007460024A246A14600E00134092C15DCC3
:1012B000224B53F824603046FFF7F6FB05463946CB
:1012C000FFF706FE0028F0D141462846FFF7E2FD71
:1012D0000028EAD1B1440AF1010AE6E7BAF1000FA9
:1012E0001CD0B9FBFAF3164A1360154B1968154860
:1012F00009F0BBFE144806F0A5FF4FF0FF324FF097
:10130000FF33124806F0E6FF00231846092BAEDC37
:101310000A4A52F8232010440133F7E7084B002211
:101320001A60E2E7AFF30080CDCCCCCCCCCCEC3F64
:101330009A9999999999F13FCDCCCCCCFC06002093
:10134000F80600206CC300003C07002024070020A2
:1013500010B586B0002301930593022302930E4A31
:10136000039204930A238DF814300C4B186840B193
:1013700083685B6801A99847044640B9204606B0D7
:1013800010BD074809F071FE4FF0FF34F6E7014643
:10139000044809F06AFEF1E7F4060020F006002098
:1013A000F8C2000028C300002DE9F8430AF09DFDB3
:1013B0004E01430146EAD0621B1A62EB010296001D
:1013C00046EA93769F0032463B1841EB0202D10079
:1013D00041EA5371D800C30B43EA4142C80B12F5EE
:1013E0007A7440F10005002304E0314A002142F8FC
:1013F00023100133092BF8DD00261EE02D4809F0EB
:1014000034FE1EE0E31A23EAE3734FEAE3794FEA7E
:10141000C93141EA5341D80340F2E7374FF47A72B9
:101420000023C0194FF0000747EB0101FFF7A0FDB3
:1014300008F02AFA14F57A747D41FFF789FF002835
:10144000DCD11D4B19881A4B43F826101B4809F0B4
:101450000CFE0136F6B21A4BA3FB0623DB0803EBA6
:101460008303A6EB4306F6B2164806F0EBFE0AF03D
:101470003CFD4B01420143EAD067131A67EB0102BE
:10148000970047EA93774FEA830C3A461CEB000338
:1014900041EB0202D10041EA5371D800C30B43EA89
:1014A00041434FEAD139A34279EB0502C5DAA9E7F6
:1014B000FC06002048C30000F40600205CC30000C6
:1014C000CDCCCCCC240700202DE9F04F85B0464888
:1014D00006F000F8002878D08246444809F0C5FD9F
:1014E0004FF0FF324FF0FF33414806F0F3FE414B1F
:1014F0001868FFF7D9FA4049FFF72EFB3F49FFF77D
:10150000DFFB0446FFF7EEFC01463D4809F0ADFD68
:101510002046FFF70DFD4FF47A7808FB00F83948B4
:10152000A0FB08384FEA5818DAF808305B6802AABE
:101530000D215046984700284DD1029CDDF80C90B3
:101540004FEA4911630141EAD4621B1B62EB0902B5
:10155000910041EA93719800061941EB0907FB00DD
:1015600043EA5673F20016461F46274A00233046C8
:101570003946FFF7FDFC83464FF0FF32234BBB4259
:1015800008BFB2422AD3A8FB044508FB09551E4AEE
:10159000002320462946FFF7EBFC03464FF0FF30BF
:1015A0001A49A94208BFA0421BD3DAF808201468E0
:1015B000002200925A460D215046A04701460029BC
:1015C0008ED0134809F051FD8AE7124809F04DFD0D
:1015D00005B0BDE8F08F6FF00401F0E76FF0850112
:1015E000EDE76FF08501EAE778C30000A4C30000CF
:1015F0003C070020F80600200000C84200C07F44DD
:10160000C0C300001F85EB5140420F003F420F0056
:10161000CCC3000080C300002DE9F04188B02E4803
:1016200005F058FF2D4B186000284DD02B4B186843
:1016300083681B682A4998470146002848D101253C
:10164000284BDD602A46002127480AF0F4FB2A4691
:10165000002126480AF0EFFB00260027CDE90667A7
:10166000002404940395029401940094204B4FF4B9
:1016700080622049204806F0FDFA204B1860CDE931
:101680000667049403950294019400941C4B4FF454
:1016900080621C491C4806F0EDFADFF88480C8F827
:1016A0000000CDE906670494039502940194009428
:1016B000164B4FF480621649164806F0DBFAC8F85C
:1016C000000008B0BDE8F081134809F0CEFCADE79A
:1016D000124809F0CAFCB2E7E4C30000F00600209B
:1016E00040C4000000700040240700203C07002098
:1016F000A9130000601400205802002054070020A5
:10170000691200008018002010030020C914000096
:10171000A01C0020C8030020ECC3000010C400007F
:101720005807002070B504460D46436803F00303D4
:101730008160022B14D0032B0FD0012B13D00F4E3E
:10174000452332460E490F4809F08FFC45213046AB
:1017500009F0E4FD0026304607E00668002004E0BA
:101760000068002601E0002630460023636010B1C7
:10177000294608F02DFF304670BD00BF48C4000068
:10178000E8C300006CC4000008B50B6801330B60AF
:10179000014B1B68984708BDB0000020014B186042
:1017A000704700BFB000002000B583B002460B4672
:1017B0000021019101A9034800F072FB03B05DF81C
:1017C00004FB00BF8917000010B584B004460190E7
:1017D00002910021039101A9054800F061FB039BE0
:1017E000029A934201DA0022E254039804B010BD39
:1017F0003BB0000038B504460D46838B002A14DB4D
:1018000003F007035A1F012A1BD9042B4FD02E4C7B
:1018100040F21B1322462D492D4809F026FC40F2C8
:101820001B11204609F07AFD38BDD0E9000185E89A
:1018300003000023236063600121204609F031FC8E
:10184000F2E7D0E9000185E803000022226062602F
:10185000062B0FD0052B1CD10021204609F021FCBE
:10186000204609F045FC0028DED0A38B43F020037E
:10187000A383D9E72B683BB1E28B0132E283002BD3
:10188000F9D01B68002BF6D10221204609F009FC93
:10189000E6E70D4D40F209132A460E490C4809F0BF
:1018A000E4FB40F20911284609F038FDD4E7002195
:1018B00009F0F7FB204609F01BFC0028B4D0A38BED
:1018C00043F02003A383AFE78CC40000E8C300000B
:1018D0006CC40000B0C400002DE9F04F83B0044692
:1018E0001646838B03F0070703F008080D4631B155
:1018F000B8F1000F12D1002300930193AAE0DFF8A2
:101900000C9340F233134A46BE49BF4809F0ADFB81
:1019100040F23311484609F001FDE9E7012D13D0EB
:10192000022D16D1A38B43F02003A3831434204649
:1019300006F068F8002800F0A38186F31188BFF351
:101940006F8F03B0BDE8F08FA38B43F01003A38328
:10195000ECE7AE4D4FF49E732A46AD49AA4809F014
:1019600084FB4FF49E71284609F0D8FCDAE7204644
:1019700009F0BEFB05466FE0D4F818904A46694668
:101980002046FFF737FF002511E0002F40F081804F
:101990002368002B00F08B8023691D68002D00F068
:1019A00094800621204609F07CFB4FF00009A38BB0
:1019B00003F00708B84500F00B81A268002A00F088
:1019C0000981012217461AB9009A002A00F0048101
:1019D00043F00803A38304F1140A504606F012F8FA
:1019E000002800F0FD8086F31188BFF36F8F002F71
:1019F00040F02681009B2BB14B464246694620466B
:101A000009F0B8FB15B183492046A8474FF02003E1
:101A1000EFF3118683F31288BFF36F8F504605F002
:101A2000E1FF002800F01281504605F0FBFFA38B78
:101A300023F00803A383A38B13F0100F00F016818B
:101A400023F01003A3830125A78B07F00707002DC0
:101A50003FF46CAF022D8AD0002D3FF467AF012D0B
:101A60008AD0032D91D0042D3ED0052D40F0A080CA
:101A7000012F72D12368002B7DD023699D68002D32
:101A800000F087800521204609F00BFB4FF000098C
:101A90008DE75E4D4FF4AB732A465F495A4809F013
:101AA000E4FA4FF4AB71284609F038FC70E7574D63
:101AB00040F257132A465949534809F0D6FA40F2E2
:101AC0005711284609F02AFC66E7DFF840814FF4F9
:101AD000AD73424652494C4809F0C7FA4FF4AD7114
:101AE000404609F01BFC5CE7022F0BD1E38BBBB92E
:101AF00023695D6815B30421204609F0D2FA4FF03E
:101B0000000954E7414D40F25D132A4645493E48DD
:101B100009F0ABFA40F25D11284609F0FFFBE5E75A
:101B20003A4D4FF4AF732A463F49374809F09DFAC2
:101B30004FF4AF71284609F0F1FBD9E7DFF8CC800C
:101B400040F26113424636492F4809F08EFA40F2BE
:101B50006111404609F0E2FBCDE72C4D4FF4B27322
:101B60002A463249284809F080FA4FF4B2712846D3
:101B700009F0D4FB7EE7254D40F265132A4627493C
:101B8000214809F072FA40F26511284609F0C6FBB7
:101B900073E7DFF878804FF4B473424620491A485F
:101BA00009F063FA4FF4B471404609F0B7FB69E7F6
:101BB000164D40F26B132A461D49134809F055FA99
:101BC00040F26B11284609F0A9FB0025A946EEE674
:101BD0000022F7E60022F5E6002D7FF4F9AE2AE7B1
:101BE000DFF858B0AC235A461249074809F03DFACD
:101BF0005146114809F039FAAC21584609F08EFBDC
:101C0000F1E600BFD8C400006CC400008CC4000022
:101C1000E8C40000B91C0000FCC4000008C50000B6
:101C20002CC5000044C500005CC500006CC5000068
:101C3000E8C30000ACC50000C4C5000084C50000B6
:101C40004A464146204609F034FAD3E6144D812332
:101C50002A461449144809F008FA5146134809F075
:101C600004FA8121284609F059FBDDE613F0200F24
:101C700004D023F02003A3830225E5E60025E3E654
:101C8000074DAC232A460A49074809F0EEF92146D8
:101C9000084809F0EAF9AC21284609F03FFB4CE678
:101CA00084C50000DCC500006CC40000F4C5000061
:101CB000ACC50000C4C500002DE9F04104460D4646
:101CC00000F114064FF02003EFF3118783F312881D
:101CD000BFF36F8F304605F085FE50B1304605F0FA
:101CE000A1FEA5613A4601212046FFF7F5FDBDE8BA
:101CF000F081DFF82C80812342460649064809F02E
:101D0000B4F93146054809F0B0F98121404609F09F
:101D100005FBE3E7DCC500006CC40000F4C500006F
:101D200084C500002DE9F84F0446884609F0F9F90A
:101D3000061E58DB04F114074FF02003EFF311895E
:101D400083F31288BFF36F8F384605F04BFEE8B17E
:101D5000384605F067FEA58B05F00705E38B4FF6C7
:101D6000FF72934256D02E46022D1FD02DB3042D64
:101D700023D0062D21D0052D53D0012D36D16FF063
:101D800004064FF0000A534652461CE03C4D8123A6
:101D90002A463C493C4809F068F939463B4809F075
:101DA00064F98121284609F0B9FAD1E70133E383C8
:101DB0004FF0010A00231A4605E0B5FA85F35B09E6
:101DC0004FF0000A012242B10022C8F800206268E8
:101DD00072B3C2F80080C4F8048073B34A4602218B
:101DE0002046FFF779FD3046BDE8F88F284E40F2D7
:101DF000C91332462749244809F037F940F2C9117E
:101E0000304609F08BFA6FF004064FF0000A534693
:101E10005246D8E76FF00A064FF0000A5346524682
:101E2000D1E76FF085064FF0000A53465246CAE7E5
:101E3000C4F80480C4F80080CFE7384605F0E2FD1E
:101E400068B189F31188BFF36F8FBAF1000FCAD060
:101E500000232A464146204609F079F9C3E7DFF816
:101E600020B0AC235A460C49074809F0FEF8394621
:101E70000A4809F0FAF8AC21584609F04FFAE0E7B1
:101E800084C50000DCC500006CC40000F4C500007F
:101E90008CC400006CC50000ACC50000C4C50000C7
:101EA0002DE9F04F93B006460D4692460393002469
:101EB0009AF80000002800F0D684252808D00AF1FE
:101EC000010A2946B0470028C0F2CE840134EFE76A
:101ED0000023069307930B93089309930A930AF13F
:101EE00001089AF80130252B01D001272CE00AF1D6
:101EF00002088DF82330A8E19DF8203043F0040358
:101F00008DF82030FFB108F101081CE09DF8203069
:101F100043F008038DF82030F4E79DF8203043F0BB
:101F200010038DF82030EDE79DF8203043F02003BA
:101F30008DF82030E6E79DF8203043F040038DF81F
:101F40002030DFE700274FB398F80030203B102BFC
:101F5000F8D801A252F823F01B1F0000451F000013
:101F6000451F0000291F0000451F0000451F0000FD
:101F7000451F0000451F0000451F0000451F0000D1
:101F8000451F00000D1F0000451F0000F91E000046
:101F9000451F0000451F0000371F00009DF820303E
:101FA00003F04403442B6DD0CDF814809DF820300D
:101FB00043F080038DF8203098F800302A2B68D049
:101FC00005A809F014F9059B984512D09DF820301A
:101FD00043F080038DF820300990C3F340030028BC
:101FE00060DB002213439DF8202063F341028DF84B
:101FF0002020059B05931B782E2B14BF0023012363
:102000009DF8212063F341028DF82120002B4BD055
:10201000059B5A1C05925B782A2B48D005A809F02D
:10202000E6F80A909DF82030C3F34003002847DB10
:10203000002213439DF8202063F341028DF82020F5
:10204000DDF8148098F800304C3B2E2B00F2DC8039
:10205000DFE803F0CADADADADADADADADADADADA9E
:10206000DADADADADADADADADADADADADADADADAD0
:1020700038DA6ADA51DADADADADADADAC0DADADA75
:10208000DADAB6009DF820306FF386138DF8203031
:102090008AE79DF8213043F001038DF82130434653
:1020A0000133A7E701229DE7DDF81480CAE79DF818
:1020B000213043F004038DF8213002F10108C1E71B
:1020C0000122B6E708F1010298F80130682B08D028
:1020D0009DF82130022161F3C6038DF8213090462E
:1020E0002BE09DF82130012262F3C6038DF82130E8
:1020F00008F1020821E008F1010298F801306C2B88
:1021000008D09DF82130032161F3C6038DF82130FA
:10211000904612E09DF82130042262F3C6038DF848
:10212000213008F1020808E09DF82130052262F311
:10213000C6038DF8213008F1010818F8013B8DF82D
:102140002330A3F14102372A00F25081DFE812F078
:1021500026014E014E014E012601260126014E01A7
:102160004E014E014E014E014E014E014E014E01F7
:102170004E014E014E014E014E014E014E01130122
:102180004E014E014E014E014E014E014E014E01D7
:1021900026014E01130163002601260126014E018E
:1021A00063004E014E014E014E012F0113013F010C
:1021B0004E014E013F014E0113014E014E0113012C
:1021C0009DF82130062262F3C6038DF8213008F114
:1021D0000108B2E79DF82130072262F3C6038DF8AB
:1021E000213008F10108A8E79DF82130082262F3A8
:1021F000C6038DF8213008F101089DF8203043F026
:1022000002038DF8203098E79DF821306FF3C60364
:102210008DF8213091E79DF82220012161F302021F
:102220008DF822209DF8212002F07802402A00F04B
:10223000AA80632B00F0AE809DF82030C3F34002EB
:10224000174367F341038DF820309DF8213013F0D8
:10225000010F00F0DA80039B1A1D03921F68002F04
:10226000C0F2CB809DF8213013F0040F00F0DF8026
:10227000039B1A1D0392D3F800B0BBF1000FC0F20C
:10228000CD80002309930A939DF8223003F00703C1
:102290009DF82110C1F3C301012B00F0D180022B66
:1022A00000F01681042B00F06781032B00F07E8183
:1022B0009DF8209019F00303029340F07D819DF872
:1022C0002330253B532B00F23382DFE813F08101EA
:1022D0003102310231023102310231023102310266
:1022E0003102310231023102310231023102310256
:1022F0003102310231023102310231023102310246
:102300003102310231023102310231023102310235
:102310003102310231023102310231023102310225
:102320003102310231023102310231023102310215
:1023300031023102C7013102310231023102310270
:1023400031023102310231023102A101AB0131020D
:10235000310231023102AB0131023102310231026C
:102360000802C701EA01310231028F013102C701BF
:1023700031023102C7019DF82220022161F30202DD
:102380008DF822204EE79DF8201041F001018DF8D4
:1023900020104EE7171E18BF01274DE79DF8223089
:1023A000042262F302038DF82230012744E79DF8EE
:1023B0002230032262F302038DF822309DF821308F
:1023C00003F07803402B7FF437AF012734E79DF803
:1023D0002230032262F302038DF822309DF821306F
:1023E00013F0780F3FF428AF012725E79DF8203040
:1023F00043F001038DF820301EE79DF8203043F0B4
:1024000004038DF820307F422CE79DF92030002B0B
:1024100002DB4FF0FF3725E7099F23E79DF82130C6
:102420006FF341038DF821304FF0FF3B29E713F0A4
:10243000020F02D0DDF828B023E74FF0FF3B20E782
:10244000CB1E042B04D8DFE803F00B1D2935350023
:10245000039B1A1D03921A68D317CDE9062306E0E1
:10246000039B1A1D03921A68D317CDE9062301298D
:1024700028D002297FF41CAFBDF91820D317CDE96D
:10248000062315E7039B073323F0070303F1080234
:102490000392D3E90023CDE90623E8E7039B073342
:1024A00023F0070303F108020392D3E90023CDE9E7
:1024B0000623DCE7039B1A1D03921A68D317CDE9A4
:1024C0000623D4E79DF81830069300230793EFE620
:1024D000CB1E042B04D8DFE803F00B1F354141006D
:1024E000039B1A1D03921B680693002307931EE0AB
:1024F0009DF82330632B07D0039B1A1D03921B68A2
:1025000006930023079312E0039B1A1D03921B6896
:102510000693002307930AE0039B073323F0070386
:1025200003F108020392D3E90023CDE90623012930
:102530001CD002297FF4BCAEBDF8183006930023EE
:102540000793B5E6039B073323F0070303F1080263
:102550000392D3E90023CDE90623E8E7039B1A1D84
:1025600003921B68069300230793E0E79DF8183059
:102570000693002307939BE608290BD0039B0733A0
:1025800023F0070303F108020392D3E90023CDE906
:1025900006238DE6039B073323F0070303F10802AC
:1025A0000392D3E90023CDE9062381E6039B1A1D9C
:1025B00003921B6806937BE6434652462946304603
:1025C00008F092FE0028C0F24F810444C2466FE436
:1025D00029462520B0470028C0F246810134DDF8A5
:1025E00008900DF1460B4FF0000AA7E0DDF818A0A7
:1025F000BBF1000F08DB5946504608F06CFF0AEBB0
:10260000000BDDF8089099E0504608F05CFFF6E713
:10261000069B8DF83030DDF808900DF1310B0DF18F
:10262000300A8BE019F0080F05D119F0100904D019
:102630004FF0200901E04FF02B09DDE90623002AC5
:1026400073F1000102DBCDE9062309E0524263EB9E
:102650004303CDE906234FF02D0901E0DDF8089092
:102660000DF1460300930CAB08AADDE9060108F062
:10267000D1FD8246BBF1000FC0F290800DF1460300
:10268000A3EB0A039DF820206FF386128DF820201B
:102690009B4540F28680ABEB030309930DF1460B9B
:1026A0004CE0069830B9DDF80890DFF8C4B1ABF122
:1026B000050A43E00DF1460300930CAB08AA002184
:1026C00008F0A8FD82469DF8223043F010038DF8F3
:1026D000223078238DF82330DDF80890CAE7069A77
:1026E0009DF82130C3F3C303072B06D8DFE803F0BE
:1026F000040C0E1012171C1E1460DDF808900DF16A
:10270000460B4FF0000A19E01470F6E71480F4E766
:102710001460F2E72046E117C2E90001EDE7204628
:10272000E117C2E90001E8E71460E6E71460E4E7B6
:10273000DDF808900DF1460B4FF0000ABAF1000FDA
:1027400000F08E80ABEB0A02B9F1000F00D001322D
:102750009DF8221011F0100F26D00232099B13446D
:1027600011F0400F01D00A9A1344002F32DDFF1AF6
:102770009DF8203013F0040F2CD113F0400F18D027
:10278000B9F1000F18D029464846B04700286BDB46
:102790000134DDF80890302302930FE00DF1460B71
:1027A000CCE70DF1460BC9E711F0080FD6D0013286
:1027B000D4E72023029301E0302302933B465F1EBF
:1027C000002B07DD29460298B04700284CDB013476
:1027D0003B46F4E7B9F1000F05D029464846B0471B
:1027E000002841DB01349DF82230C3F30012C3F30B
:1027F000C003134305D029463020B047002833DBFF
:1028000001349DF8223013F0100F06D029469DF8B0
:102810002300B047002827DB0134099B03F1FF396F
:10282000002B07DD29463020B04700281CDB01348F
:102830004B46F3E75B4652462946304608F054FDC6
:10284000002811DB0444002F07DD29462020B04773
:10285000002809DB0134013FF5E7C246FFF728BB3A
:10286000C246FFF725BB204613B0BDE8F08F00BF7E
:1028700011C6000008B54FF02002EFF3118382F378
:102880001288BFF36F8F00F047FF034808F0EDFB9D
:1028900000F074FAFCE700BF14C6000070B584B005
:1028A000424B1C7D04F01F0301229A406109404BFA
:1028B00003EB8103D043BFF35B8F53E8001F01EAB2
:1028C000000543E80056002EF7D1BFF35B8F0A42A4
:1028D0005AD004EB4403374A02EB830393E8070022
:1028E00004AB03E90700344B9BB108F05FFE4FF0E7
:1028F0002003EFF3118683F31288BFF36F8F2F4805
:1029000005F070F858B12D4805F08CF82C4B1D6877
:102910001AE0002383F31188BFF36F8FE7E7294D97
:1029200081232A462849294808F09FFB2349284843
:1029300008F09BFB8121284608F0F0FCE3E72B46DA
:102940000DB12B686BB11D465DB1AA68002AF6D0A7
:10295000164B1B7D03EB4303164911F823009047E8
:10296000EDE73546154805F04DF878B185F3118847
:10297000BFF36F8F0F4A04EB4404A10002EB840401
:10298000002353506360A36004B070BD0D4EAC23B0
:10299000324610490D4808F068FB08490E4808F017
:1029A00064FBAC21304608F0B9FCDFE71C120020C4
:1029B000680700206C070020ADB500005C07002010
:1029C0006007002084C50000DCC500006CC4000066
:1029D000F4C50000ACC50000C4C50000F0B589B066
:1029E00005466B4B1C7D04F01F0301229A406109D0
:1029F000684B03EB8103BFF35B8F53E8001F41EA91
:102A0000020043E80006002EF7D1BFF35B8F0A42B5
:102A10001ED004EB4403604A12F82330002B00F070
:102A2000B580B5F1FF3F23D105F046FE4FF02003FE
:102A3000EFF3118683F31288BFF36F8F574804F0CA
:102A4000D1FF58B3554804F0EDFF554B1D683AE0EF
:102A500004EB4406504B03EB86066F462A4621469C
:102A6000384608F063FC97E8070086E80700D0E7DF
:102A700004EB440302EB83039B68590CD803494ED3
:102A8000494A002380194FF0000646EB0101FEF78A
:102A90006FFA0121281A07F08BFAC5E7434D81230D
:102AA0002A464349434808F0E0FA3C49424808F0C6
:102AB000DCFA8121284608F031FCC3E72B460DB132
:102AC0002B686BB11D465DB16A68002AF6D0304BA9
:102AD0001B7D03EB4303304911F823009047EDE7DA
:102AE00035462E4804F08EFF00283FD085F311882C
:102AF000BFF36F8F04F01F030121994063092F4A30
:102B000002EB8303BFF35B8F53E8002F0A4343E8D4
:102B100000200028F8D1BFF35B8F04EB44031E4A6A
:102B200002EB830393E8070008AB03E90700244B9B
:102B30000BB108F028FDFFF7B1FE06F083FB012082
:102B400004F01F02012393406409124A02EB84043B
:102B5000DB43BFF35B8F54E8002F1A4044E80021A9
:102B60000029F8D1BFF35B8F09B0F0BD0F4EAC2345
:102B7000324614490F4808F078FA0849124808F01C
:102B800074FAAC21304608F0C9FBAFE70020D7E764
:102B90001C120020780700206C0700205C07002032
:102BA000600700203F420F0040420F0084C5000034
:102BB000DCC500006CC40000F4C5000068070020FC
:102BC00087B50000ACC50000C4C5000008B50248C8
:102BD00008F080F808BD00BF40C60000D0B108B5BD
:102BE0004268042A05D0D2B1006805F057FA0020E7
:102BF00008BD03680022BFF35B8F53E8001F012963
:102C000003D143E800200028F7D1BFF35B8F04D144
:102C10001046EDE76FF4E04070470248E8E70248ED
:102C2000E6E700BFE98FFFFFEA8FFFFF20B308B59B
:102C30004268042A02D092B911480FE003680122C9
:102C4000BFF35B8F53E8001F002903D143E8002046
:102C50000028F7D1BFF35B8F0CD1002008BD0068BE
:102C60004FF0FF324FF0FF3305F0F8F80028F5D0B1
:102C70000448F3E70348F1E76FF4E040704700BF12
:102C8000EA8FFFFFE98FFFFF10B5044688B1636844
:102C9000042B0DD0082B0BD053B113F0020F0DD025
:102CA0002146094804F012FE0023236000236360DC
:102CB00010BD064B5B6806489847E8E714220021E0
:102CC000206808F040FCF1E77C0700208C01002020
:102CD00048C6000010B5044678B16368042B0BD0D9
:102CE000082B09D00BB9236863B1206809F09CF860
:102CF000636843F00103636010BD0F4B5B680F48CE
:102D00009847EAE74FF0FF324FF0FF3321460C4877
:102D100004F068FD08B923681BB9074B5B680948D4
:102D2000984714220021206808F00DFC636843F0E6
:102D300002036360D9E700BF8C01002048C6000091
:102D40007C07002070C6000008B540231422044907
:102D5000044809F017F80449044808F01DF808BDB4
:102D60009C0700207C070020B0C60000A0C6000021
:102D7000014910220A60704710ED00E072B6404031
:102D800080F31188BFF36F8FBFF34F8F30BF62B6F0
:102D9000BFF36F8F704700BF72B6494081F311884F
:102DA00020BF80F3118862B6704700BF43B2002B8A
:102DB00008DB00F01F005B09012202FA00F0024A62
:102DC00042F82300704700BF00E100E04209054BD4
:102DD00053F8222000F01F00012303FA00F01040F6
:102DE000704700BF00E100E0F8B505464C1C072C19
:102DF0000BD86BB2002B1BDB6401E4B203F1604320
:102E000003F5614383F80043F8BD0E460C4F592388
:102E10003A460C490C4808F028F907232A4631465F
:102E20000A4808F022F95921384608F077FAE0E715
:102E300005F00F056401E4B2054B5C55E4E700BF03
:102E4000C4C60000FCC600006CC4000018C7000027
:102E500014ED00E030BFFFF7FDBF00BF08B50B4B1E
:102E60000B4A22F07F029A60BFF34F8FBFF36F8F40
:102E7000D3F8882022F47002C3F8882004F036FCCE
:102E800006F08CFE00F074FA04F03CFC00ED00E06B
:102E9000000000000A4A9368C3F8AC0009490968B9
:102EA000C3F8B01008494B6843F080534B600023CF
:102EB00083F31188BFF36F8F9368D3F8B000704726
:102EC0001C12002040D0000000ED00E013498A6889
:102ED0004FF030001044EFF3098C80E8F01F202001
:102EE00080F31288BFF36F8F0D4F4FF00066CA69F1
:102EF0008A603E60D2F8AC000023C2F8AC3080F3A8
:102F0000118804B5104600F0D5FABDE8044002F17E
:102F1000300090E8F01F8CF3098870471C120020E5
:102F200004ED00E01EF0040F0CBFEFF30880EFF398
:102F30000980816911F8021C0229FFD001B508F04F
:102F400002FA01BD10B4A2F120040D4921F00101E3
:102F500042F8081C42F8203C019B42F81C3C029BB2
:102F600042F8183C039B42F8143C4FF0807342F83F
:102F7000043C04650023C0F8AC3010BC704700BFAF
:102F8000DBB10000164B9A68DAB110F1160F1AD0B7
:102F900010B4D2F89C30A3F12004844205D88342B7
:102FA00008D98B4208D8002100E0002131B9002067
:102FB00010BC70470021F9E70121F7E7D2F89C0027
:102FC000F6E700207047D2F89C308B4294BF002176
:102FD000012109B900207047D2F89C00704700BF5A
:102FE0001C12002008B50D461446084B986000F0EE
:102FF00061FA204685F30988002163B681F31188C0
:10300000BFF36F8F0022002308F0E7F81C120020A6
:1030100001B572B60B4A906900281EBF002191616C
:1030200008F0E6FE62B6EFF30580A0F110004FEA6B
:10303000C0000549014409C99847BDE8014003495A
:10304000084700001C120020F8C0000051300000AA
:10305000044B9968D869884203D003494FF08052E5
:103060000A6070471C12002004ED00E010B5144601
:10307000124B9A6A9A6A9B6A13F4007F0BD00F4B2B
:103080009A6B9B6A13F4004F05D021B10B4A936AE7
:1030900023F400439362094B9A6A9B6A13F4807F7E
:1030A00001D1064B9B6A054A936A43F47F439362BE
:1030B000012108F05AF92070002010BD00ED00E059
:1030C000074B9A6A9A6A9A6A9A6A9A6A9A6A9A6A92
:1030D0006FEA02426FEA12429A620020704700BF14
:1030E00000ED00E0F8B5054616462B4B9A6A9A6A41
:1030F0009B6A13F0020F0CD0274B586B9B6A13F09E
:10310000800F25D039B1244A936A23F0800393625B
:1031100001E06FF01500204B9A6A9A6A9B6A13F0DF
:10312000100F04D11C4B9C6A14F0020404D01A4BFB
:103130005C6814F400640ED1174A936A43F0FF03ED
:1031400093620121284608F010F930702046F8BD3E
:103150006FF01500DFE72946FFF714FF0746B0B907
:103160000D4B9C6A14F01004E6D00C4C40F249134D
:1031700022460B490B4807F078FF0B4807F075FF14
:1031800040F24911204608F0C9F83C46D4E780F3E4
:1031900009880224D0E700BF00ED00E058C7000016
:1031A00094C700006CC40000E0C7000038B50023DD
:1031B0000B702C4BDC6A14F0020450D1DB6A002B3C
:1031C0004EDB284BDD6A15F0804536D0836933F835
:1031D000022C4DF602739A4210D003F1604303F6BD
:1031E00026631B7863B9204B1B787BB91F4B1B8868
:1031F0009BB28BB1FFF764FF044631E004682FE017
:103200000A460121FFF76EFF044629E00A46012124
:10321000FFF72CFF044623E0154D40F2C3232A4656
:103220001449154807F021FF144807F01EFF40F22B
:10323000C321284608F072F812E00D4C40F2C72373
:1032400022460C490C4807F010FF0D4807F00DFF0F
:1032500040F2C721204608F061F82C4600E0002427
:10326000204638BD00ED00E029ED00E02AED00E049
:1032700058C70000E8C300006CC4000004C8000088
:1032800028C80000F0B58BB02B4B5D68C5F308056E
:10329000002383F31188BFF36F8F02F07F43B3F1F4
:1032A0007F4F0DD102F00C03082B27D012F0080F2E
:1032B00003D00C460026ACB904E004460126FAE728
:1032C000002634461D4F40F2F2333A461C491D4851
:1032D00007F0CBFE1C4807F0C8FE40F2F23138463A
:1032E00008F01CF80DF127022946204608F042F8A4
:1032F00005469DF8273023B10BB0F0BD00263446BB
:10330000E0E72022214601A808F0F9F84EB1089B19
:10331000C3F308025AB96FEA53236FEA43230893B1
:1033200005E0089B23F4FF7323F00103089301A930
:10333000284608F004F8DFE700ED00E058C7000079
:1033400058C800006CC400006CC80000024A5369F1
:1033500043F010035361704700ED00E0EFF3088085
:10336000EFF3098101B57246FFF78CFF01BD00BF85
:10337000002206E002F00F01094B0B4420211976D0
:1033800001322F2A0ADC53B2002BF3DB03F1604336
:1033900003F56143202183F80013F1E7704700BF74
:1033A000FCEC00E0002080F31488BFF36F8F08F07E
:1033B0000DFE00200D490860BFF34F8F0C4880F3CD
:1033C000088800F029F8202080F3118809484FF47C
:1033D0000261401880F30988EFF31480022108434A
:1033E00080F31488BFF36F8FFFF738FD94ED00E092
:1033F000C024002040260020064B1868C0F3072098
:103400000023834205DA034A9360002111610133EE
:10341000F7E7704790ED00E010B572B6002484F332
:103420001388FFF7E9FF234608E003F120010E4A65
:103430004FF0FF3042F821000133DBB2072BF4D903
:10344000002308E003F16001074A4FF0FF3042F823
:1034500021000133DBB2072BF4D962B6BFF34F8FE3
:10346000BFF36F8F10BD00BF00E100E008B5084B4F
:103470009B68834202D006F069FA08BDEFF305832A
:10348000002BF8D0034A536843F080535360F2E7AF
:103490001C12002000ED00E008B5034B034A012197
:1034A000034800F05DF808BD000004200000002083
:1034B000ACC8000008B5D0F89C30203B044803603D
:1034C00020234360034B8360012100F06BF808BDAB
:1034D0009C0C002000000B15064A90600B6823F03E
:1034E0001F03034343F01003D3608B6843F00103D1
:1034F0001361704790ED00E010B5034C0123227872
:1035000007F096FF207010BD9812002008B5002328
:10351000084A127807F08CFF10F1160F08D0034606
:10352000072B05DC044A9360002111610133F7E7A2
:1035300008BD00BF9812002090ED00E0034B05226B
:103540005A60BFF34F8FBFF36F8F704790ED00E06D
:10355000BFF35F8F014B00225A60704790ED00E08F
:1035600038B50C46FFF7C8FF10F1160F00D038BD74
:10357000084D40F211132A460749084807F075FD27
:103580002146074807F071FD40F21111284607F067
:10359000C5FEECE7B8C80000E8C300006CC400003A
:1035A000F0C8000038B50C46FFF7B0FF10F1160F59
:1035B00000D038BD084D4FF498732A460749084893
:1035C00007F053FD2146074807F04FFD4FF498716F
:1035D000284607F0A3FEECE7B8C80000E8C30000E7
:1035E0006CC400001CC9000038B5234B1D68082DB1
:1035F00003D8FFF7ADFF00241EE0204C4FF4A47366
:1036000022461F491F4807F030FD082229461E4860
:1036100007F02BFD4FF4A471204607F07FFE4FF01A
:10362000FF3016E0144B596804EB44029300194430
:103630002046FFF751FF0134A542F3D8134B1D700C
:10364000FFF77CFF124B1B68C3F30723082B01D144
:10365000002038BD094C4FF4D47322460D49094867
:1036600007F003FD0C4807F000FD4FF4D47120462D
:1036700007F054FE0020ECE704CA0000B8C80000C0
:10368000E8C300006CC400004CC900009812002080
:1036900090ED00E080C90000D0C90000014B186027
:1036A000704700BFD4000020064B1B68064A126812
:1036B000082B01D000207047022A01D0002070475B
:1036C00001207047300100103401001010B54FF098
:1036D0002003EFF3118483F31288BFF36F8F01236C
:1036E0000B4AC2F840354FF08042C2F87835FFF7F8
:1036F000DBFF10B1074B01221A604FF0804301221B
:10370000C3F8802584F31188BFF36F8F002010BDAC
:1037100000E0014038060040C0B24FF08043C3F8DB
:103720001C05BFF34F8F0549CA6802F4E062044BE1
:103730001343CB60BFF34F8F00BFFDE700ED00E008
:103740000400FA0530B108B58001034B43F00103D2
:10375000984708BD704700BFF0C2000030B482B087
:1037600000230093CDF803300A7902F01F02072AE4
:1037700000F2B4800B78092B00F2B380DFE803F08D
:10378000053A3E4246B14A4EB15200238DF802300E
:103790004B78032B4AD0042B40F0A68000238DF8F1
:1037A00003304B88002B00F0898044F228008342CC
:1037B00000F29D8044F203008342C0F09B80A3F599
:1037C0008043033B252B00F29880DFE803F033961B
:1037D000739696969677969696967B969696967FFD
:1037E0009696969696969696969696969696969679
:1037F0009696968301238DF80230C9E702238DF84F
:103800000230C5E703238DF80230C1E704238DF8A9
:103810000230BDE705238DF80230B9E706238DF8A5
:103820000230B5E707238DF80230B1E701238DF8A8
:103830000330B6E700238DF804300C799DF8003092
:1038400003F003039DF80100000100F03000034382
:103850009DF80200000200F4E06003439DF80300BD
:10386000000300F4805003439DF80400000400F4BA
:10387000E0200343C4F3401443EA04539DF80600D8
:10388000000600F0807003431D4C04EB0210C0F8EA
:103890001835887902F151031D0104EB03135860B8
:1038A000002060514979174B1A4482F8A81002B0E1
:1038B00030BC704701238DF80430BEE702238DF839
:1038C0000430BAE703238DF80430B6E704238DF8FB
:1038D0000430B2E705238DF80430AEE76FF0150031
:1038E000E5E76FF01500E2E76FF01500DFE76FF036
:1038F0001500DCE76FF01500D9E76FF01500D6E78B
:103900000070004000000020074B0122C3F8002592
:1039100090F88E3013B1054B1A6070470123024AAC
:103920001360043213607047007000400C70004058
:1039300049B9054BD3F82C26D3F8341689B202EBDB
:103940004102C3F82C26704700700040037C083BFE
:10395000062B11D8DFE803F004100E1006100C003F
:10396000002200E00222064BC3F8F0250020704739
:103970000322F8E70122F6E76FF01500704700BF59
:1039800000700040012901D9437C73B9437C082BA6
:103990000ED8DFE803F0050505050505050505005A
:1039A000054AC2F8F435002070476FF015007047E3
:1039B0006FF01500704700BF00700040F0B583B095
:1039C0004E68002E00F0A3800D4636F0FF0340F055
:1039D000A18000231C4609E003F151021201504965
:1039E000002088500133DBB2072B25D81A4626FA6F
:1039F00003F111F0010FEFD04A49194491F8A810D2
:103A0000002900F08A80687C011E18BF0121444F04
:103A100007EB031CDCF8180520F0807040EA016019
:103A2000CCF818053F49194491F8A81051321201F9
:103A3000B9500134E4B2D5E72846FFF787FF0646C0
:103A400010B1304603B0F0BD21462846FFF79AFF7B
:103A500006460028F5D12146284607F0B2FD064665
:103A60000028EED1AA682E4BC3F82C26C3F83046A6
:103A7000DFF8B0C00CF17C042F460FCF0FC43B68B9
:103A800023600023CCF870302B6853B10CF1900404
:103A90000FCB84E80F00CCF87C400023ACF8A030BA
:103AA00090B92048FFF730FF1E4B93F87830002B79
:103AB000C7D11C4C4FF0FF324FF0FF3304F15800D8
:103AC00004F008FC266FBCE764460022BFF35B8F5E
:103AD00054E8003F44E800210029F9D1BFF35B8F8F
:103AE0001746D4F89030590CD803DFF840C00E4A7E
:103AF000002310EB0C007941FDF73AFA0090019198
:103B00003A463B4604F1080006F0A2FCCCE76FF011
:103B1000150696E76FF0150693E76FF0150690E728
:103B2000007000400000002040420F003F420F00A4
:103B3000F8B505460E4617460D4C4FF0FF324FF0D4
:103B4000FF3304F1400004F0C5FB012384F8783012
:103B5000676731462846FFF731FF054694F878300D
:103B600003B110B1034804F06DFB2846F8BD00BF57
:103B7000000000204000002010B50E4B00241C6007
:103B80001B680D4B1C601B680C4B1222C3F80423EE
:103B90000720FFF70BF9224601210720FFF724F940
:103BA000074B9B6C0BB1002010BD064804F04AFB8C
:103BB000F9E700BF04710040107100400070004040
:103BC00000000020400000203E4B1B687BB93E4BAC
:103BD0001B68002B74D03C4B00221A601B68012329
:103BE0003A4A1360083A136004321360704710B504
:103BF000344A002313601268344A01211160083AE4
:103C0000C2F80035324BDB6F23B3314BD3F894301D
:103C100043B12F49B1F8A0207C31984701280FD03B
:103C2000022810D02A4AB2F8A030B2F89C20934261
:103C300018D20133264AA2F8A03000210B4604E036
:103C40000121002301E00021012373B1204BD3F8AF
:103C500090303BBB1E4B93F878303BBB1D4804F0C3
:103C6000F1FA10BD00210123EFE7194C2046FFF7C0
:103C70005FFED4F890301BB92046FFF745FEF0E711
:103C8000134BBFF35B8F53E8002F511E43E8001026
:103C90000028F8D1BFF35B8F012AE2DD1846FFF759
:103CA00033FEDEE70C4808F02AF9D3E7084B586FDB
:103CB00010B1002106F08CFC084804F0C3FAD0E7EC
:103CC000704700BF04710040107100400870004050
:103CD00000000020580000200800002040000020C4
:103CE00070B505460E460D4C4FF0FF324FF0FF33D6
:103CF00004F1400004F0EEFA002384F878306367A2
:103D000031462846FFF75AFE054694F8783003B14D
:103D100010B1034804F096FA284670BD0000002058
:103D20004000002000487047000D0020014BC01AE1
:103D300040117047B80C002030B583B005460C46E2
:103D4000FFF7F4FF0146402300932346054A064847
:103D500007F0C7FC011E01DB03B030BD2846A047B9
:103D6000FAE700BF2BB7000050C0000008B50A4BAF
:103D7000BFF35B8F53E8002F22F0020143E80010ED
:103D80000028F7D1BFF35B8F12F0010F00D008BD00
:103D900007F0DDFCFBE700BF100D002010B54FF071
:103DA0002003EFF3118483F31288BFF36F8F134A5C
:103DB000136843F00203136013F0010F08D10023CE
:103DC00084F31188BFF36F8F9BB907F0B6FC10BD69
:103DD0004FF08043D3F80C24D3F80C3412F0010FC9
:103DE00001D10023ECE7FFF79DFF07F055FC01230D
:103DF000E6E70021024807F062FCE8E7100D00202A
:103E000050C0000070B50546CCB2012C07D8214641
:103E1000284607F0F9FB806800F0070070BD064EE9
:103E2000792332460549064807F01FF979213046C3
:103E300007F074FAEBE700BF34CA000074CA000050
:103E40006CC400002DE9F04107461646CCB221466D
:103E500007F0DAFB0546012C0FD8314605F10800C2
:103E600007F0E1FB002806DB2146384607F0D3FBCC
:103E7000436898470020BDE8F081DFF8248040F2D5
:103E80004D1342460449054807F0EFF840F24D1142
:103E9000404607F043FAE0E774CA00006CC4000033
:103EA00034CA000038B505460C46FFF73FFF01460F
:103EB00040220348FFF7C6FF01462846A04738BD09
:103EC00050C0000010B501281DD0032820D068B1D3
:103ED000164C40F2622322461549164807F0C5F8F1
:103EE00040F26221204607F019FA10E00021124842
:103EF00007F08AFB836813F0070F08D100210E48F2
:103F000007F0DDFB03E001210B4807F0D8FB10BDF3
:103F1000064C40F25E2322460549064807F0A5F804
:103F200040F25E21204607F0F9F9F0E734CA0000BC
:103F3000E8C300006CC4000050C0000000B587B0AA
:103F4000CDF800D0CDF804D00023029301230393D1
:103F500004AB049305936B46064A07F0DEFB00288A
:103F600005DB4FF480420023684604F0B3F907B044
:103F70005DF804FB6DB7000070B506460022012114
:103F80001046FEF731FF0020FEF710FF114801F048
:103F9000F3FC114B98421AD101F016FD002403E006
:103FA0000123AB601C44E4B2012C0ED821463046FC
:103FB00007F02AFB05462146304607F030FB07494B
:103FC00007F0EFF80028EBDA00E0002070BD6FF09A
:103FD0000400FBE7C53E00000000AD0BD4CA0000A2
:103FE00070B50546012807D14FF08043D3F81C3443
:103FF00003F00303012B58D007F0E5FE28B92E4B40
:104000001B78002B41D0002300E001231C46002B2D
:104010003DD04FF02003EFF3118683F31288BFF3F6
:104020006F8F24B94FF080430222C3F808234FF06A
:104030008042D2F8183403F00303D2F8182412F4A3
:10404000803F2BD100221AB1012B29D0012D27D07E
:10405000FCB13046FEF7A0FE4FF08043D3F8183590
:10406000002BE4D1154B1B68002BE0D0134B002232
:104070001A601B6801234FF08042C2F81835104ABD
:10408000C2F880310F4A1360D1E70123BEE7002652
:10409000C7E72120002105F0F7FBDDE70122D2E789
:1040A00024B186F31188BFF36F8F70BD4FF080434A
:1040B0000222C3F80423F8E799120020040100400B
:1040C00000E100E00800004038B504461F4B012124
:1040D000BFF35B8F53E8002F43E800100028F9D1AD
:1040E000BFF35B8F42B134B1631EDBB2012B1ED82C
:1040F0002046FFF775FF38BD154807F090FA1549BF
:1041000000234B60CB6001238B60FDF70BFE002882
:10411000E9DA114D4FF408732A461049104806F0A9
:10412000A4FF4FF40871284607F0F8F8DBE70A4CC3
:1041300040F2322322460B49094806F096FF40F22E
:104140003221204607F0EAF8D5E700BF140D002021
:1041500050C00000A80C002034CA000098CA00001B
:104160006CC40000E8C3000010B504460A2807D05C
:10417000074B1868E1B283685B689847204610BD1A
:10418000034B186883685B680D219847F0E700BF10
:10419000180D002010B5044C2046FFF77FFA20468A
:1041A000FDF7FCFA10BD00BF6941000008B50648E4
:1041B000064B186007F0C2FD18B1FFF7EBFF0020B7
:1041C00008BD6FF01200FBE7B0C00000180D002022
:1041D0001F4B03401F4A934232D016D8062B2BD0D8
:1041E00006D9B3F5801F0DD101230B700020704755
:1041F000FBB1022B03D104230B70002070476FF03A
:10420000150070476FF015007047134A93421BD09A
:10421000B3F5A00F03D103230B7000207047B3F553
:10422000800F03D102230B70002070476FF0150040
:10423000704700200870704706230B7000207047FD
:1042400007230B700020704705230B700020704778
:104250000600F000060010000200400028B101280E
:1042600001D103487047002070470248704700BFE3
:1042700068C0000080C000002DE9F04115460669C5
:10428000371D0C4639B16368ABB17368002B3BD066
:10429000214600222AE0DFF8A88024234246234951
:1042A000234806F0E2FE234806F0DFFE24214046C4
:1042B00007F034F8E7E7DFF88880252342461E49F7
:1042C0001B4806F0D2FE1D4806F0CFFE25214046D1
:1042D00007F024F8D9E7236873607A6894420FD115
:1042E0007B600DE07A600BE01A461B685BB1994277
:1042F000FAD1002AEFD0236813607B689C42F1D08A
:104300000023236000E055B165B1736823607460D9
:104310007B680BB1002006E07C60002003E06FF0BA
:10432000150000E00020BDE8F08100BF10CB0000C8
:104330006CC400001CCB00002CCB000040CB000064
:10434000E0CA00002DE9F04100F01F044009FFF72A
:1043500085FF80B3074603690126A6405C681CB14F
:1043600025467CB125680DE025460BE06368A26810
:104370003240214638469847DDB12B4605B12B68BF
:104380002C461D46BCB1A3681E42F5D06368002BC5
:10439000ECD1DFF83480452342460849084806F04E
:1043A00064FE084806F061FE4521404606F0B6FF6F
:1043B000DCE72B46E4E7BDE8F08100BF58CB000006
:1043C0006CC4000040CB0000E0CA0000F0B585B02E
:1043D0000E46194643681B7B06F01F0444EA43144B
:1043E000B2F5005F22D007461546002302930393DF
:1043F000104607F0F3F98DF808007B689968F140E2
:1044000011F0010102D1B5F5A03F14D0002302AA9A
:104410001946204601F0E8FF324B98425FD1012156
:10442000204602F043FA002005B0F0BD204602F01D
:1044300049FB0020F8E763091FD0012B01D14FF69B
:10444000FF7104F01F03D94011F0010F18D004F0E0
:104450001F05630922D0012B23D0234E40F22E23C7
:1044600032462249224806F000FE40F22E21304614
:1044700006F054FF4FF0A04314E04FF0FF31E0E7A7
:10448000194D40F229232A461A49194806F0EDFD34
:1044900040F22921284606F041FFD8E74FF0A0431B
:1044A00000E0154B05F5E07553F8253013F0010FCA
:1044B000ACD10DF10701204602F088F90F4B98426C
:1044C00003D00DF107030393A0E70DF1070002F0FD
:1044D000E5F9044B9842F4D06FF00B00A4E76FF0BD
:1044E0000400A1E70000AD0B64CB0000E8C30000AE
:1044F0006CC4000098CB0000000300500400AD0B1A
:1045000030B583B004460DF1070102F05FF90546AE
:10451000204602F03FFB0B4B98420FD19D4205D045
:10452000084B984207D1002003B030BD9DF807002A
:1045300002F0ACF9F4E76FF00400F5E76FF0040067
:10454000F2E700BF0000AD0B2DE9F04387B0D0F8D3
:10455000048098F80C3001F01F0545EA4315002A45
:1045600044D00C4617460026039604960DF1170119
:10457000204602F02BF98146334603AA31462846ED
:1045800001F032FF304B98425BD1994536D017F499
:10459000007F43D00DF103013846FFF719FE0646B0
:1045A00040BB9DF803308DF8043017F4807F0CBFBA
:1045B000012300238DF80530384607F0DCF88DF82C
:1045C000060017F4006F1ED0D8F80430012101FA5C
:1045D00004F4C3F80845002201A9284601F0F6FFBB
:1045E000194B984206D06FF0150603E02846FFF7F6
:1045F00087FF0646304607B0BDE8F0839DF81700F8
:1046000002F044F9C3E717F4806FE4D0D8F804202F
:10461000012303FA04F4C2F80C45DCE7384607F03E
:10462000AAF88DF8080000231A4602A9284601F0CE
:10463000DBFE054B984201D10026DBE76FF0150643
:10464000D8E76FF01506D5E70000AD0B08B502F00E
:1046500013F908B1002008BD02F0E4F8084B9842B5
:104660000AD10021074802F0ABF8002205210620FC
:10467000FEF7BAFB0020EEE76FF00400EBE700BFA7
:104680000000AD0B4543000002480021C2E90001D3
:10469000002070470024F4002DE9F041002401E0DF
:1046A0000134E4B2032C0BD89442F9D001EB440559
:1046B000AD88C5F30E05002DF2D06FF015000BE0AC
:1046C0001A460024B2F5004F08D352080134E4B270
:1046D000072CF7D96FF01500BDE8F0810B608C73E3
:1046E00095B28D810668877B15F4004F07D1C6F817
:1046F0000C45C6F80475C6F808550020ECE7DFF84D
:1047000024804FF4277342460449054806F0ADFC67
:104710004FF42771404606F001FEE8E744CC000064
:104720006CC4000010CC000010B5034640681C6942
:10473000002304E0002104EB430291800133032BAA
:1047400007D8C21892F90820002AF3DB4FF4004181
:10475000F1E700231A4600F1080102F0C1FB044B07
:10476000984201D1002010BD6FF00F00FBE700BFA1
:104770000000AD0B2DE9F84F99469DF828304568AB
:10478000D0F81080002B40F0FA800E46174605F155
:10479000080007F039F80446042800F0F380414689
:1047A00007F043F838B94146204607F04DF860BBA2
:1047B0004FF0010A01E04FF0000AAB7B012B27D03C
:1047C0001FB1D8F80030BB4226D1BB464F4528BFA9
:1047D000CB4608EB44018B8803F4004398F80E2085
:1047E0002BFA02F213438B804146204607F01DF856
:1047F000002840F0B3802B1993F90820BBF1000F7B
:1048000015D1002A11DB012312E04FF0000AD4E792
:104810007F084FEA5909D3E73B46224641462846DE
:10482000FFF73AFF0028D0D052E0002300E0002339
:104830004F4503D8002A27DB002200E000220BB9F5
:10484000002A47D0730921D0012B22D14FF6FF73E4
:1048500006F01F02D34013F0010F1CD006F01F0713
:10486000760926D0012E27D0494E40F22E2332461B
:104870004849494806F0F9FB40F22E21304606F03F
:104880004DFD4FF0A04218E00122D8E74FF0FF3372
:10489000DEE70023DCE73E4F40F229233A463F495A
:1048A0003D4806F0E2FB40F22921384606F036FD8D
:1048B000D4E74FF0A04200E0394A0123BB40C2F8E0
:1048C0000C354146204606F0BFFF002840D00020AE
:1048D000BDE8F88F73091FD0012B20D14FF6FF736D
:1048E00006F01F02D34013F0010F1AD006F01F0785
:1048F000760924D0012E25D0254E40F22E233246B3
:104900002449254806F0B1FB40F22E21304606F03E
:1049100005FD4FF0A04216E04FF0FF33E0E7002323
:10492000DEE71B4F40F229233A461C491A4806F09D
:104930009CFB40F22921384606F0F0FCD6E74FF008
:10494000A04200E0164A0123BB40C2F80835B8E790
:104950000021284602F01CFD0020B9E7BAF1000F43
:1049600013D0284602F0DCFC0028FAD002230122F2
:1049700005F11801284602F049FB0020A8E76FF076
:104980008500A5E76FF01500A2E70020A0E700BFB3
:1049900064CB0000E8C300006CC4000098CB0000AA
:1049A0000003005043681A68B1F5164F6FD03AD82B
:1049B000B1F5165F6ED00AD9B1F5E14F75D024D9A3
:1049C00047F6122399422BD14FF4000313E0B1F5BF
:1049D000966F61D007D9B1F5166F63D0B1F5965FC8
:1049E00010D13C4B07E0B1F5967F58D0B1F5167F5A
:1049F00005D14FF41C33C2F82435002070476FF006
:104A0000150070476FF015007047B1F5615F4ED02B
:104A1000B1F5964F01D1304BEDE76FF015007047BF
:104A20006FF015007047B1F5613F42D009D9B1F57B
:104A3000612F46D01FD9294B994248D14FF080535E
:104A4000D9E7B1F5963F37D005D9B1F5E13F0FD1A0
:104A50004FF0EB73CFE74DF6C02399422ED0B1F55E
:104A6000614F02D14FF46B03C5E76FF0150070473B
:104A70006FF0150070471A4B994225D0B1F5E12F20
:104A800002D14FF0E863B6E76FF0150070474FF4BE
:104A90001D03B0E7134BAEE74FF49E23ABE74FF493
:104AA000A033A8E74FF41D23A5E70F4BA3E70F4B57
:104AB000A1E74FF06C739EE70D4B9CE74FF4650345
:104AC00099E74FF0706396E74FF0806393E76FF0DC
:104AD0001500704700B0130000A04E0040420F00C8
:104AE00090D003000050270000C0750000F03A008D
:104AF00000903A012DE9F04105460F46D0F81080AC
:104B000007F061F920B9164B1B78ABB1002300E028
:104B100001239BB14FF02003EFF3118483F312883C
:104B2000BFF36F8F2646284606F04AFF50B984F33C
:104B30001188BFF36F8FEDE70123EAE7284606F0FF
:104B40008EFF0646414601F8107F0122284606F0F6
:104B500051FF86F31188BFF36F8FBDE8F08100BF6E
:104B60009912002038B504460D4601F1120002F0FA
:104B70009DF80C4B984211D1AB7C04F590710C342C
:104B8000094AA23342F8331002EBC3035C60A97CEC
:104B900001238B40C2F80435002038BD6FF00400BB
:104BA000FBE700BF0000AD0B00F00140F8B5446822
:104BB000002940F0BA81E568B5F1FF3F30D12569A1
:104BC000B5F1FF3F00F0C780237F002B00F0A580E8
:104BD00003266B0900F0A380012B40F0A3804FF661
:104BE000FF7305F01F02D34013F0010F00F09C800B
:104BF00005F01F076D0900F0A580012D00F0A580CC
:104C0000BA4D40F22E232A46B949BA4806F02DFA89
:104C100040F22E21284606F081FB4FF0A04395E09C
:104C20006B091FD0012B20D14FF6FF7305F01F0237
:104C3000D34013F0010F1AD005F01F066D0924D0E0
:104C4000012D25D0A94D40F22E232A46A849A94876
:104C500006F00BFA40F22E21284606F05FFB4FF0DB
:104C6000A04216E04FF0FF33E0E70023DEE79F4E5F
:104C700040F229233246A0499E4806F0F6F940F258
:104C80002921304606F04AFBD6E74FF0A04200E06B
:104C90009A4A0123B340C2F80835E5686B091FD072
:104CA000012B20D14FF6FF7305F01F02D34013F004
:104CB000010F1AD005F01F066D0924D0012D25D053
:104CC0008A4D40F22E232A4689498A4806F0CDF9BA
:104CD00040F22E21284606F021FB4FF0A04316E0BB
:104CE0004FF0FF33E0E70023DEE7804E40F2292358
:104CF000324681497F4806F0B8F940F22921304612
:104D000006F00CFBD6E74FF0A04300E07B4B06F526
:104D1000E076032243F8262051E7002659E74FF0BA
:104D2000FF335EE700235CE7704F40F229233A46E9
:104D30007149704806F099F940F22921384606F089
:104D4000EDFA55E74FF0A04300E06C4BB60007F5D5
:104D5000E07743F827606569B5F1FF3F30D1A56979
:104D6000B5F1FF3F00F0D280637F002B00F0A580FB
:104D700003276B0900F0A380012B40F0A3804FF6BE
:104D8000FF7305F01F02D34013F0010F00F09C8069
:104D900005F01F066D0900F0A580012D00F0B08020
:104DA000524D40F22E232A465149524806F05DF9F1
:104DB00040F22E21284606F0B1FA4FF0A042A0E0C2
:104DC0006B091FD0012B20D14FF6FF7305F01F0296
:104DD000D34013F0010F1AD005F01F066D0924D03F
:104DE000012D25D0414D40F22E232A46404941480D
:104DF00006F03BF940F22E21284606F08FFA4FF0DC
:104E0000A04216E04FF0FF33E0E70023DEE7374E25
:104E100040F2292332463849364806F026F940F256
:104E20002921304606F07AFAD6E74FF0A04200E09A
:104E3000324A0123B340C2F8083565696B091FD0B7
:104E4000012B20D14FF6FF7305F01F02D34013F062
:104E5000010F1AD005F01F066D0924D0012D25D0B1
:104E6000224D40F22E232A462149224806F0FDF821
:104E700040F22E21284606F051FA4FF0A04316E0EA
:104E80004FF0FF33E0E70023DEE7184E40F229231E
:104E900032461949174806F0E8F840F22921304611
:104EA00006F03CFAD6E74FF0A04300E0134B06F5BE
:104EB000E076032243F8262051E7002759E74FF018
:104EC000FF335EE700235CE7084E40F229233246B9
:104ED0000949084806F0C9F840F22921304606F091
:104EE0001DFA55E74FF0A0420BE000BF64CB000075
:104EF000E8C300006CC4000098CB00000003005021
:104F0000934ABF0006F5E07642F826702368E16810
:104F10002269C3F80C15C3F8142523686169A269D6
:104F2000C3F80815C3F81025F8BDE568B5F1FF3FD3
:104F300033D12569B5F1FF3F6ED16569B5F1FF3F0A
:104F400040F0A980A569B5F1FF3FDFD06B0900F003
:104F5000E180012B40F0E1804FF6FF7305F01F0266
:104F6000D34013F0010F00F0DA8005F01F066D0941
:104F700000F0E380012D00F0E380764D40F22E2317
:104F80002A467549754806F070F840F22E212846E9
:104F900006F0C4F94FF0A043D3E06B091FD0012BFA
:104FA00020D14FF6FF7305F01F02D34013F0010F1D
:104FB0001AD005F01F066D0924D0012D25D0654DAE
:104FC00040F22E232A466449644806F04EF840F227
:104FD0002E21284606F0A2F94FF0A04316E04FF02C
:104FE000FF33E0E70023DEE75A4E40F22923324642
:104FF0005B495A4806F039F840F22921304606F05C
:105000008DF9D6E74FF0A04300E0514B06F5E0766E
:10501000022243F826208CE76B091FD0012B20D1F8
:105020004FF6FF7305F01F02D34013F0010F1AD0A3
:1050300005F01F066D0924D0012D25D0454D40F205
:105040002E232A464449454806F00FF840F22E2107
:10505000284606F063F94FF0A04316E04FF0FF3307
:10506000E0E70023DEE73B4E40F2292332463C498D
:105070003A4805F0FAFF40F22921304606F04EF991
:10508000D6E74FF0A04300E0314B06F5E076022270
:1050900043F8262051E76B091FD0012B20D14FF692
:1050A000FF7305F01F02D34013F0010F1AD005F073
:1050B0001F066D0924D0012D25D0264D40F22E2348
:1050C0002A462549254805F0D0FF40F22E212846E2
:1050D00006F024F94FF0A04316E04FF0FF33E0E76D
:1050E0000023DEE71B4E40F2292332461C491B48B1
:1050F00005F0BBFF40F22921304606F00FF9D6E754
:105100004FF0A04300E0124B06F5E076022243F890
:10511000262017E74FF0FF3320E700231EE70D4E50
:1051200040F2292332460E490C4805F09EFF40F21A
:105130002921304606F0F2F817E74FF0A04300E0CF
:10514000034B06F5E076022243F82620DEE600BF98
:105150000003005064CB0000E8C300006CC40000F2
:1051600098CB000021F07F4100F5A870014B43F877
:10517000201070470010014000F5A870014B53F853
:1051800020007047001001404FF480338340024AF2
:10519000C2F84433704700BF001001404FF4803321
:1051A0008340024AC2F84833704700BF00100140F4
:1051B000014BD3F8040570470010014010B50123DE
:1051C0008340DC43104ABFF35B8F52E8001F01EAC3
:1051D000040C42E800CEBEF1000FF6D1BFF35B8FA6
:1051E0004FF4803202FA00F002F1804202F5805260
:1051F000C2F80803BFF35F8FBFF36F8F0B4214BF7A
:105200000120002010BD00BF480D002070B50446ED
:1052100006F0C8FC05464FF48033A340174AD2F885
:105220000423134205D10026284606F0C4FC30466C
:1052300070BD0123A340DB43114ABFF35B8F52E8EB
:10524000001F01EA030042E80006002EF7D1BFF379
:105250005B8F59B904F150039B009BB203F180436B
:1052600003F588331B6813B1012300E001231E46B8
:10527000002BD9D0204606F086FCD5E7001001406F
:10528000440D002001B9704701238340114ABFF348
:105290005B8F52E8001F194342E8001CBCF1000F6D
:1052A000F7D1BFF35B8F4FF4803383400A4AC2F8D3
:1052B0000433BFF35B8F094B1B68BFF35B8F23FA8B
:1052C00000F010F0010FDED0054B4FF40032C3F8B0
:1052D0000021D8E7480D002000100140440D0020B7
:1052E00000E100E0F8B5074614461E461046194690
:1052F00006F055FC0546154B1A68A01A1C605E6046
:10530000A5F50013B3F5400F08D3002404F0B6FE52
:105310003846FFF731FFA8420CD0F8BD0C4B196896
:105320000B0A0A06521943F100030A49C1E9002396
:105330000124EBE71CB13846FFF726FFEDE74FF4F9
:1053400000013846FFF70EFFF5E700BF9804002084
:105350004C0D00208004002038B50D4B1B681D0A41
:105360001C06BFF35F8FFFF723FF0346201845F1AC
:105370000001B3F5801F0AD2064BD3E900239942FE
:1053800008BF904203D210F1807041F1000138BD96
:105390004C0D0020800400202DE9F84306461446F9
:1053A0001D461046194606F0FAFB0746FFF7D4FFE4
:1053B000A94208BFA0421ED2B4EB000865EB010968
:1053C0004FF0807200234B4508BF42452ED3194B46
:1053D00003EB0613D3E90223AB4208BFA24218D065
:1053E0003946304606F0ECFB394606F0C8FB241877
:1053F00045F100050DE00123B3400F4ABFF35B8F79
:1054000052E8001F194342E800100028F8D1BFF30A
:105410005B8F084B320103EB0616C6E9024508997B
:105420009950099B73600020BDE8F8836FF0150068
:10543000FAE700BF88040020440D002030B583B097
:1054400000231E4AC2F80835002B25DD1B4C02251F
:10545000C4F804531A4B4FF40032C3F880210022E1
:1054600001211120FDF7C0FC1120FDF79FFC012355
:10547000144A13602360144A136000240194134BF0
:105480000093134A0023204606F0D5FB2846FEF77A
:105490001BFE204603B030BD0E4A02EB03124FF054
:1054A000FF304FF0FF31C2E902014FF480329A40E1
:1054B0000249C1F804230133C6E700BF00100140D0
:1054C00000E100E008100140480D0020E552000016
:1054D000FFFF7F00880400202DE9F04782B00446DA
:1054E000FFF794FE10B902B0BDE8F087FFF734FF74
:1054F00006460F4606F056FB8246134B03EB041399
:10550000D3E902894F4508BF46450BD200265046D5
:1055100006F051FB002EE6D0009542464B46204651
:10552000B047E0E7084A230102EB0411D6584D6862
:105530000020D0504FF0FF324FF0FF33C1E902237B
:105540002046FFF72BFEE2E78804002010B50D4B44
:10555000D3F8043313F0020F0AD00B4B1B683BB196
:10556000094B00221A601B68084A13680133136054
:105570000024002C00DD10BD2046FFF7ADFF0134F4
:10558000F7E700BF00100140041101404C0D00205E
:1055900010B582B0B0F1FF3F07D0441E002C07DDEC
:1055A000114B9C4205DD114C03E000F50000F4E7CF
:1055B0000024FFF7D1FE0E4BD3E90023801AB0F58B
:1055C000000F00D3002404440134B4F5000F00D3CD
:1055D000064C0020019007490091121943F1000385
:1055E00006F029FB02B010BDFEFF7F00FFFF7F0029
:1055F00098040020E552000008B5FFF7ADFE024B0D
:105600001B68C01A08BD00BF98040020034B1B682C
:10561000082B01D000207047012070473001001096
:10562000034B1B68082B01D00020704701207047F6
:1056300030010010084B1A6804331B68082A01D097
:1056400000207047002B04D8DFE803F001000120A0
:1056500070470020704700BF30010010084B1A68E7
:1056600004331B68082A01D000207047002B04D89F
:10567000DFE803F00100012070470020704700BF01
:1056800030010010084B1A6804331B68082A01D047
:1056900000207047002B04D8DFE803F00100012050
:1056A00070470020704700BF30010010084B1A6897
:1056B00004331B68082A01D000207047002B04D84F
:1056C000DFE803F00100012070470020704700BFB1
:1056D00030010010034B1B68082B01D000207047DD
:1056E0000120704730010010064B1B68064A126803
:1056F000082B01D000207047042A01D800207047F1
:10570000012070473001001034010010024BD3F823
:105710000034002BFAD0704700E0014008B5034B7D
:10572000C3F80405FFF7F2FF08BD00BF00E0014029
:10573000014B024A1A607047000100200090D0031C
:1057400038B5FFF763FF40B14FF080430022C3F844
:105750000C21C3F81021C3F83825FFF761FF00289A
:1057600046D04FF08052D2F80414564BC3F820159F
:10577000D2F80814C3F82415D2F80C14C3F828156D
:10578000D2F81014C3F82C15D2F81414C3F830153D
:10579000D2F81814C3F83415D2F81C14C3F8401505
:1057A000D2F82014C3F84415D2F82414C3F84815CD
:1057B000D2F82814C3F84C15D2F82C14C3F850159D
:1057C000D2F83014C3F85415D2F83414C3F8601565
:1057D000D2F83814C3F86415D2F83C14C3F868152D
:1057E000D2F84014C3F86C15D2F84424C3F87025DD
:1057F000FFF720FF10B1344B344A1A60FFF72EFF39
:1058000018B1334BFB22C3F81825FFF73BFF48B113
:1058100030490B6823F00F032F4A126802F00F0281
:1058200013430B60FFF742FF18B12C4B4FF400728B
:105830001A60FFF74FFF60B14FF08043D3F8003498
:1058400013F0010F05D04FF080436FF00102C3F851
:105850000024FFF749FF38B14FF01023D3F8082296
:105860004FF08043C3F858254FF01023D3F800328F
:10587000002B08DB4FF01023D3F80432002B02DB9F
:10588000FFF756FF38BD0120FFF748FF4FF0102407
:105890001225C4F80052FFF739FFC4F80452FFF78D
:1058A00035FF0020FFF73AFFBFF34F8F0C49CA685E
:1058B00002F4E0620B4B1343CB60BFF34F8F00BF8A
:1058C000FDE700BF00C000408C5600404881030047
:1058D00000F00040E40E00405802001040960240E4
:1058E00000ED00E00400FA0530B40468B4FA84F373
:1058F000D3F11F0315D401229A4024EA0202BFF318
:105900005B8F50E8005FA54204D140E8002CBCF159
:10591000000FF6D1BFF35B8FE7D10B70024830BCAC
:1059200070470248FBE700BF0000AD0B0200AD0B63
:1059300010B403680C4623FA01F111F0010F14D1E1
:1059400002680123A3401343BFF35B8F50E8001F9D
:10595000914204D140E8003CBCF1000FF6D1BFF306
:105960005B8FEDD1024810BC70470248FBE700BFD7
:105970000000AD0B0400AD0B38B5044650B10C4B24
:105980001B799BB90A4B1C6001221A7100225A71C3
:10599000084838BD084DBD232A460849084805F087
:1059A00064FBBD21284605F0B9FCE8E70548F0E7AF
:1059B000500D00200000AD0BFCCC00003CCD0000E1
:1059C0006CC400000C00AD0B10B50B4B1B7923B160
:1059D0000020FDF7FBF960B110BD084CD62322462C
:1059E0000749084805F041FBD621204605F096FC02
:1059F000EEE7FDF7DBF9EFE7500D0020FCCC0000EF
:105A00004CCD00006CC4000038B504462A4B1B790D
:105A100083B1ECB1012C44D0284C4FF4A273224640
:105A20002749284805F021FB4FF4A271204605F0D4
:105A300075FC2DE0214D4FF489732A4622492148F7
:105A400005F013FB4FF48971284605F067FCE0E789
:105A50004FF08042D2F8183403F00303D2F8182430
:105A600012F4803F15D100220AB1012B13D04FF060
:105A700080430022C3F81825144B00221A601B68CB
:105A80004FF080430222C3F80423083301221A6036
:105A900038BD0122E8E74FF080430122C3F8182502
:105AA000EAE70B4B00221A601B684FF0804301228B
:105AB000C3F804231A60EBE7500D0020FCCC000073
:105AC000E8C300006CC400004CCD0000040100409D
:105AD0000001004070B582B004465E4B1B7983B173
